:100000000C9472000C9493000C9493000C94930045
:100010000C9493000C9493000C9493000C94930014
:100020000C9493000C9493000C9493000C94930004
:100030000C9493000C9493000C9493000C949300F4
:100040000C9493000C9493000C9493000C949300E4
:100050000C9493000C9493000C9493000C949300D4
:100060000C9493000C9493000C9493000C949300C4
:100070000C9493000C9493000C9493000C949300B4
:100080000C9493000C9493000C9493000C949300A4
:100090000C9493000C9493000C9493000C94930094
:1000A0000C9493000C9493000C9493000C94930084
:1000B0000C9493000C9493000C9493000C94930074
:1000C0000C9493000C9493000C9493000C94930064
:1000D0000C9493000C9493000C9493000C94930054
:1000E0000C94930011241FBECFEFD1E2DEBFCDBF31
:1000F00000E00CBF12E0A0E0B2E0E6E2F4E100E0D4
:100100000BBF02C007900D92A231B107D9F722E0D0
:10011000A2E1B2E001C01D92A431B207E1F70E9452
:1001200025050C94110A0C940000EAE7F0E08081A8
:1001300087608083ACE7B0E08C9180648C93808191
:1001400080688083808180648083089590917C00A2
:10015000907E90937C0020917C00982F9770922B3A
:1001600090937C00887080937B0080917A008064FB
:1001700080937A0080917A0086FDFCCF8091780090
:10018000909179000895AF92BF92CF92DF92EF9253
:10019000FF920F931F93CF93DF93CDB7DEB7DA951E
:1001A0000FB6F894DEBF0FBECDBF5C016B017A01C4
:1001B0008901CE0101960E94FA0469E072E0CE0145
:1001C00001960E94FC060E94DE06F5019183808361
:1001D00069E072E090E080E00E94FC060E94DE068A
:1001E000F6019183808369E072E090E080E00E94F4
:1001F000FC060E94DE06F701808368E072E090E072
:1002000080E00E94FC069C01892B91F0FF24F3946E
:10021000C9010E94DE06F801E80FF91FF08269E0CB
:1002200072E090E080E00E94FC069C01892B81F73F
:10023000D3950FB6F894DEBF0FBECDBFDF91CF913F
:100240001F910F91FF90EF90DF90CF90BF90AF90F4
:1002500008950F931F93CF93DF93CDB7DEB7DA9551
:100260000FB6F894DEBF0FBECDBF7F936F931F9282
:100270008F938BE092E09F938F9381E08F931F92F7
:100280008E010F5F1F4F1F930F930E942F07C8010E
:100290000E9416050FB6F894DEBF0FBECDBFD395F2
:1002A0000FB6F894DEBF0FBECDBFDF91CF911F9187
:1002B0000F9108952F923F924F925F926F927F928B
:1002C0008F929F92AF92BF92CF92DF92EF92FF9266
:1002D0000F931F93CF93DF93CDB7DEB7CC50D140B0
:1002E0000FB6F894DEBF0FBECDBFC55FDE4F88836B
:1002F000CB50D140C45FDE4F9883CC50D140C95F12
:10030000DE4F6883C750D140C85FDE4F7883C85046
:10031000D140CB5FDE4F4883C550D140CA5FDE4F2E
:100320005883C650D140C95FDE4F88819981C7503C
:10033000D140892B09F411C1712CCB5FDE4FA8810C
:10034000B981C550D14018967D01642E6094CB5F71
:10035000DE4FE881F981C550D140E095F095C75F47
:10036000DE4FF983E883C950D140CE0101965C018C
:1003700080E9482E55245394CB5FDE4F08811981C4
:10038000C550D14004C00E151F0509F443C0D80163
:100390008D918D018130B9F780917C00807E8093B2
:1003A0007C0090917C00862D8A0F892B80937C00A5
:1003B00010927B0080917A00806480937A00809113
:1003C0007A0086FDFCCF80917800909179009F9310
:1003D0008F93C75FDE4F88819981C950D140800FCC
:1003E000911F9F938F93EBE0F2E0FF93EF9381E0F7
:1003F0008F931F92BF92AF920E942F07C5010E9458
:1004000016050FB6F894DEBF0FBECDBF0E151F0543
:1004100009F0BDCF88EE93E0C55FDE4F6881CB5019
:10042000D140C45FDE4F7881CC50D1400E9472052C
:10043000CB01B0E0A0E0CF5FDE4F88839983AA8331
:10044000BB83C150D140CD010E94BA051B014C01B4
:1004500020E030E04AE755E4CF5FDE4F6883C150CB
:10046000D140CE5FDE4F3882C250D140CD5FDE4FEB
:100470008883C350D140CC5FDE4F9882C450D140B6
:10048000CF5FDE4F688179818A819B81C150D140E5
:100490000E9449066B018C0120E030E040E85FE3F8
:1004A000CF5FDE4F6883C150D140CE5FDE4FD88230
:1004B000C250D140CD5FDE4F8883C350D140CC5F66
:1004C000DE4F1883C450D140CF5FDE4F6881798101
:1004D0008A819B81C150D1400E94860587FD5AC008
:1004E00020E03FEF4FE757E4CF5FDE4F688179812F
:1004F0008A819B81C150D1400E94440618160CF499
:100500004CC0CF5FDE4FC882C150D140CE5FDE4FBE
:10051000D882C250D140CD5FDE4F0883C350D14056
:10052000CC5FDE4F1883C450D140CF5FDE4F68816F
:1005300079818A819B81C150D1400E948B05CB017A
:100540000197F1F77394C95FDE4FA881B981C75055
:10055000D1407A161B0608F40FCF80E00E94EC040D
:10056000C45FDE4F0FB6F894DEBF0FBECDBFDF9184
:10057000CF911F910F91FF90EF90DF90CF90BF90A0
:10058000AF909F908F907F906F905F904F903F9033
:100590002F90089581E090E0D3CF20E030E040E25A
:1005A00051E4CF5FDE4F2882C150D140CE5FDE4F95
:1005B0003882C250D140CD5FDE4F8882C350D140D7
:1005C000CC5FDE4F9882C450D140CF5FDE4F688150
:1005D00079818A819B81C150D1400E944906CF5FB9
:1005E000DE4F6883C150D140CE5FDE4F7883C2506A
:1005F000D140CD5FDE4F8883C350D140CC5FDE4F0A
:100600009883C450D140CF5FDE4F688179818A8161
:100610009B81C150D1400E948B05CB01009709F40A
:1006200091CFF2013197F1F70197D9F78BCF2F9244
:100630003F924F925F926F927F928F929F92AF9272
:10064000BF92CF92DF92EF92FF920F931F93CF93BF
:10065000DF93CDB7DEB7C850D4400FB6F894DEBFF5
:100660000FBECDBFCB5FDB4F8883C550D440CA5F80
:10067000DB4F9883C650D4406B01C95FDB4F488382
:10068000C750D440C85FDB4F5883C850D440672B55
:1006900009F4EEC0212C712CE8EE8E2EE3E09E2EA4
:1006A000F0E9AF2EBB24B394C95FDB4FE881C7509C
:1006B000D440C85FDB4FF881C850D44040E003C04D
:1006C0004F5F4830B9F181918130D1F78FEF7816C3
:1006D00009F438C180917C00807E80937C008091F9
:1006E0007C00842B80937C0010927B0080917A00A8
:1006F000806480937A0080917A0086FDFCCF2091FF
:10070000780030917900872D90E0A1E0B3E0AC0F44
:10071000BD1FA80FB91F4C93880F991FA1E0B0E02F
:10072000AC0FBD1FA80FB91F2D933C9373944F5F5F
:10073000483049F6C401CB5FDB4F6881C550D440D7
:10074000CA5FDB4F7881C650D4400E947205CB014E
:10075000B0E0A0E0CF5FDB4F88839983AA83BB839F
:10076000C150D440CD010E94BA05362E472E582ED6
:10077000692E20E030E04AE755E4CF5FDB4F688325
:10078000C150D440CE5FDB4F7883C250D440CD5FA0
:10079000DB4F8883C350D440CC5FDB4F9883C45079
:1007A000D440CF5FDB4F688179818A819B81C150C2
:1007B000D4400E9449067B018C0120E030E040E8F3
:1007C0005FE3CF5FDB4F6883C150D440CE5FDB4F28
:1007D000F882C250D440CD5FDB4F8883C350D440F1
:1007E000CC5FDB4F1883C450D440CF5FDB4F6881B0
:1007F00079818A819B81C150D4400E94860587FD02
:1008000054C020E03FEF4FE757E4CF5FDB4F6881F4
:1008100079818A819B81C150D4400E944406181678
:100820000CF446C0CF5FDB4FE882C150D440CE5FAE
:10083000DB4FF882C250D440CD5FDB4F0883C350FA
:10084000D440CC5FDB4F1883C450D440CF5FDB4F24
:10085000688179818A819B81C150D4400E948B0537
:10086000CB010197F1F723942C141D0408F41CCF3D
:1008700080E00E94EC04C85FDB4F0FB6F894DEBF47
:100880000FBECDBFDF91CF911F910F91FF90EF90E1
:10089000DF90CF90BF90AF909F908F907F906F90A0
:1008A0005F904F903F902F90089581E090E0D9CFD6
:1008B00020E030E040E251E4CF5FDB4F3882C150AE
:1008C000D440CE5FDB4F4882C250D440CD5FDB4F77
:1008D0005882C350D440CC5FDB4F6882C450D440B0
:1008E000CF5FDB4F688179818A819B81C150D44081
:1008F0000E944906CF5FDB4F6883C150D440CE5F72
:10090000DB4F7883C250D440CD5FDB4F8883C35028
:10091000D440CC5FDB4F9883C450D440CF5FDB4FD3
:10092000688179818A819B81C150D4400E948B0566
:10093000CB01009709F497CFF5013197F1F70197B3
:10094000D9F791CFB12CDE01AF5FBD4F6D017BE0D8
:10095000872E72E0972EAA24A394EB2CF12C87010A
:10096000000F111FE1E0F0E0EC0FFD1F0E0F1F1F45
:10097000D80111968C9111978F938C918F93E1E010
:10098000F3E0EC0FFD1FEE0EFF1ED7018C911F92BE
:100990008F939F928F92AF921F92DF92CF920E947D
:1009A0002F07C6010E941605F7011082D8011D927B
:1009B0001C92B3940FB6F894DEBF0FBECDBFCDCF5F
:1009C0001092C50082E38093C40086E08093C20049
:1009D00088E98093C10008959091C00095FFFCCFF5
:1009E0008093C60008958091C00087FFFCCF80915E
:1009F000C60008959C019091C00097FFFCCF909194
:100A0000C600F9019193992369F09A3021F09D3045
:100A100011F09F01F0CF10822E5F3F4F922F981B55
:100A2000892F08959E2F981B892F0895FC0190818E
:100A3000992351F031968091C00085FFFCCF9093AF
:100A4000C60091919111F7CF0895CDB7DEB72D97DC
:100A50000FB6F894DEBF0FBECDBF0E94E0048091B8
:100A60007A00876080937A0080917C008064809314
:100A70007C0080917A00806880937A0080917A006F
:100A8000806480937A0088E0E0E0F2E0DE01119675
:100A900001900D928A95E1F79E012F5F3F4FAE01C5
:100AA000435F5F4FBE01675F7F4FCE010B960E9491
:100AB000C3008D8581110AC069857A85AE014F5FBB
:100AC0005F4F8B859C850E945A01DDCF8130D9F61E
:100AD00069857A85AE014F5F5F4F8B859C850E944B
:100AE0001703D1CFAA1BBB1B51E107C0AA1FBB1F15
:100AF000A617B70710F0A61BB70B881F991F5A95AA
:100B0000A9F780959095BC01CD0108950E94F70545
:100B100008F481E008950E94230688F09F5798F01A
:100B2000B92F9927B751B0F0E1F0660F771F881FF2
:100B3000991F1AF0BA95C9F714C0B13091F00E940C
:100B40003D06B1E008950C943D06672F782F882765
:100B5000B85F39F0B93FCCF3869577956795B39533
:100B6000D9F73EF490958095709561957F4F8F4FA2
:100B70009F4F0895E89409C097FB3EF490958095A7
:100B8000709561957F4F8F4F9F4F9923A9F0F92F53
:100B900096E9BB279395F695879577956795B795D1
:100BA000F111F8CFFAF4BB0F11F460FF1BC06F5FB7
:100BB0007F4F8F4F9F4F16C0882311F096E911C0C9
:100BC000772321F09EE8872F762F05C0662371F0EA
:100BD00096E8862F70E060E02AF09A95660F771FFE
:100BE000881FDAF7880F9695879597F90895990FDA
:100BF0000008550FAA0BE0E8FEEF16161706E807E7
:100C0000F907C0F012161306E407F50798F0621B07
:100C1000730B840B950B39F40A2661F0232B242BDC
:100C2000252B21F408950A2609F4A140A6958FEFFB
:100C3000811D811D089557FD9058440F551F59F08F
:100C40005F3F71F04795880F97FB991F61F09F3FB9
:100C500079F087950895121613061406551FF2CFE2
:100C60004695F1DF08C0161617061806991FF1CF32
:100C700086957105610508940895E894BB27662759
:100C80007727CB0197F908950E94F70508F48FEFB5
:100C900008950E945C060C94CD060E94BF0638F0B1
:100CA0000E94C60620F0952311F00C94B6060C9411
:100CB000BC0611240C943E060E941B0670F3959FFF
:100CC000C1F3950F50E0551F629FF001729FBB2743
:100CD000F00DB11D639FAA27F00DB11DAA1F649FDF
:100CE0006627B00DA11D661F829F2227B00DA11D92
:100CF000621F739FB00DA11D621F839FA00D611D18
:100D0000221F749F3327A00D611D231F849F600D38
:100D1000211D822F762F6A2F11249F5750409AF061
:100D2000F1F088234AF0EE0FFF1FBB1F661F771FED
:100D3000881F91505040A9F79E3F510580F00C94B8
:100D4000B6060C943E065F3FE4F3983ED4F38695D6
:100D500077956795B795F795E7959F5FC1F7FE2B58
:100D6000880F911D9695879597F9089597F99F6734
:100D700080E870E060E008959FEF80EC0895002423
:100D80000A941616170618060906089500240A94F0
:100D900012161306140605060895092E0394000C76
:100DA00011F4882352F0BB0F40F4BF2B11F460FF05
:100DB00004C06F5F7F4F8F4F9F4F0895FC018827BE
:100DC0009927E89421912032E9F3293010F02E3050
:100DD000C8F32B3241F02D3239F4689404C00E94DC
:100DE0002707820F911D219120532A30C0F31EF452
:100DF000909581959F4F089542E152E00C94000731
:100E0000FA01A191B081009719F41097E1F0CD019A
:100E1000DC01CD010D90002011F4C00113C0FB01D5
:100E20002191222319F02015D9F7F3CFFB0121914D
:100E3000201519F41E92119606C02223C1F70D90B9
:100E40000020A1F7D001FA01A193B08308957AE0C0
:100E5000979F902D879F802D910D112408950F93BA
:100E60001F93CF93DF93CDB7DEB72E970FB6F894CD
:100E7000DEBF0FBECDBF0E891F89888D998D26E0FC
:100E80002C831A83098397FF02C080E090E80197C2
:100E90009E838D83AE01445E5F4F6A8D7B8DCE0154
:100EA00001960E946C074D815E8157FD0AC02F811B
:100EB0003885421753070CF49A01020F131FF801EB
:100EC00010822E960FB6F894DEBF0FBECDBFDF9115
:100ED000CF911F910F9108952F923F924F925F9261
:100EE0006F927F928F929F92AF92BF92CF92DF923A
:100EF000EF92FF920F931F93CF93DF93CDB7DEB79F
:100F00002F970FB6F894DEBF0FBECDBF7C013B011B
:100F10008A01DC0117961C921E92169713968C91EB
:100F200081FFD8C19AE0292EFE0131964F01D701E9
:100F300013969C91F30193FD859193FF81913F015D
:100F4000882309F448C1853239F493FD859193FFD4
:100F500081913F01853229F4B70190E00E94830915
:100F6000E6CFB12C412C512CBFE1B51538F08B32B6
:100F700009F188F4803201F1833221F157FC3AC043
:100F800020ED280F2A3040F556FE1FC0B29C200DE0
:100F90001124B22E06C08D3291F0803379F7689417
:100FA00050F8F30193FD859193FF81913F018111E9
:100FB000DBCF20C0689451F8689452F8F2CF68945F
:100FC00053F8EFCF689454F8ECCF429C200D1124D5
:100FD000422E689455F8E5CF8E3229F456FCFBC0BA
:100FE000689456F8DECF8C3619F4689457F8D9CF48
:100FF0008836B9F2982F9F7D95549330C0F0833690
:10100000A1F18337C1F1833509F05BC0D801CD90E0
:10101000DD908D016B2D70E056FC02C06FEF7FEF0D
:10102000C6010E946D095C01689457F80AC00C5F04
:101030001F4FEFE3E983AA24A394B12C6401E89441
:1010400057F853FC04C04A141B0409F018F5342C5B
:10105000A114B10431F5332009F469CFB70180E25E
:1010600090E00E9483093A94F6CFD8018C9189834D
:101070000E5F1F4FE0CFF801C190D1908F016B2D13
:1010800070E056FC02C06FEF7FEFC6010E94780946
:101090005C01D5CFB70180E290E00E9483094A94B9
:1010A000D2CFF60157FC859157FE81916F01B701B0
:1010B00090E00E94830931103A94B1E0AB1AB10874
:1010C000C7CF843619F0893609F074C0F80157FE8D
:1010D0006AC061917191819191918F01E52DEF76B7
:1010E000DE2E97FF09C090958095709561957F4F92
:1010F0008F4F9F4F6894D7F82AE030E0A4010E94F8
:10110000B309C82EC818AC2C5D2CD6FE0CC0E894D0
:1011100050F8CB1440F4D4FE05C0D2FC03C05D2DC2
:101120005E7E552EAB2C54FEADC0FE01EC0DF11DC4
:101130008081803309F09FC0652D697E562E752D04
:101140007870372E53FCADC050FEA7C0BC2CA41441
:1011500018F44C0CB42CBA1854FEA9C0B70180E3A3
:1011600090E00E94830952FE09C088E790E051FE9A
:1011700002C088E590E0B7010E948309CB1408F40F
:10118000A2C0CA94D12C8FEFC81AD80AC80CD91C97
:10119000D6018E916D01B70190E00E9483098C14F5
:1011A0009D04B1F758CF61917191072E000C880B07
:1011B000990B93CFD52CE894D4F82AE030E085370A
:1011C000E1F1F52DF97FDF2E803751F100F58835FB
:1011D00051F18F3681F1F701868197812F960FB6F5
:1011E000F894DEBF0FBECDBFDF91CF911F910F915D
:1011F000FF90EF90DF90CF90BF90AF909F908F9037
:101200007F906F905F904F903F902F900895883718
:1012100011F7D4FE02C06894D2F820E130E00DC08E
:101220006894D4F8F6CF54FE03C02F2F2660D22E38
:1012300020E132E002C028E030E0F801D7FE15C01E
:1012400041915191619171914C875D876E877F8744
:101250008F01A4016C857D858E859F850E94B309D1
:10126000C82EC818E894D7F84ECF81919191AC015F
:1012700070E060E0E9CF52FC02C0A39460CFA39479
:10128000A3945DCF852D867809F459CFF6CFB701A9
:1012900080E290E00E948309A394A414C0F3312C4F
:1012A0005BCF342C3A18A41408F456CFF8CF852D10
:1012B000867809F463CF8BE251FE80E257FC8DE221
:1012C000B70190E059CFB70180E390E00E94830915
:1012D000BA9454CF8FEF9FEF81CFFC0105906150FE
:1012E00070400110D8F7809590958E0F9F1F08953C
:1012F000FC016150704001900110D8F780959095E5
:101300008E0F9F1F08950F931F93CF93DF93182F76
:10131000092FEB018B8181FD09C01FEF0FEF812F9A
:10132000902FDF91CF911F910F91089582FF14C0EC
:101330002E813F818C819D81281739073CF4E881FB
:10134000F981CF0101969983888310838E819F81D3
:1013500001969F838E83E3CFE885F985812F1995C8
:10136000892BA1F3DACFFA01AA27283051F12031D5
:1013700081F1E8946F936E7F6E5F7F4F8F4F9F4F29
:10138000AF4FB1E03ED0B4E03CD0670F781F891F6B
:101390009A1FA11D680F791F8A1F911DA11D6A0F39
:1013A000711D811D911DA11D20D009F468943F91EC
:1013B0002AE0269F11243019305D3193DEF6CF01EB
:1013C0000895462F4770405D4193B3E00FD0C9F7B1
:1013D000F6CF462F4F70405D4A3318F0495D31FD1E
:1013E0004052419302D0A9F7EACFB4E0A695979571
:1013F000879577956795BA95C9F700976105710547
:1014000008959B01AC010A2E069457954795379590
:101410002795BA95C9F7620F731F841F951FA01DEA
:061420000895F894FFCFCF
:1014260000000000000000002C2000256420256438
:021436000A00AA
:00000001FF
