:100000000C9472000C9493000C9493000C94930045
:100010000C9493000C9493000C9493000C94930014
:100020000C9493000C9493000C9493000C94930004
:100030000C9493000C9493000C9493000C949300F4
:100040000C9493000C9493000C9493000C949300E4
:100050000C9493000C9493000C9493000C949300D4
:100060000C9493000C9493000C9493000C949300C4
:100070000C9493000C9493000C9493000C949300B4
:100080000C9493000C9493000C9493000C949300A4
:100090000C9493000C9493000C9493000C94930094
:1000A0000C9493000C9493000C9493000C94930084
:1000B0000C9493000C9493000C9493000C94930074
:1000C0000C9493000C9493000C9493000C94930064
:1000D0000C9493000C9493000C9493000C94930054
:1000E0000C94930011241FBECFEFD1E2DEBFCDBF31
:1000F00000E00CBF12E0A0E0B2E0E4EFFCE000E0C2
:100100000BBF02C007900D92AE30B107D9F722E0C5
:10011000AEE0B2E001C01D92A031B207E1F70E944B
:1001200046040C9478060C940000EAE7F0E0808125
:1001300087608083ACE7B0E08C9180648C93808191
:1001400080688083808180648083089590917C00A2
:10015000907E90937C0020917C00982F9770922B3A
:1001600090937C00887080937B0080917A008064FB
:1001700080937A0080917A0086FDFCCF8091780090
:10018000909179000895AF92BF92CF92DF92EF9253
:10019000FF920F931F93CF93DF93CDB7DEB7DA951E
:1001A0000FB6F894DEBF0FBECDBF5C016B017A01C4
:1001B0008901CE0101960E941B0469E072E0CE0124
:1001C00001960E941B060E94FD05F5019183808324
:1001D00069E072E090E080E00E941B060E94FD054D
:1001E000F601808369E072E090E080E00E941B06E7
:1001F0000E94FD05F701808368E072E090E080E0F6
:100200000E941B069C01892B91F0FF24F394C901E5
:100210000E94FD05F801E80FF91FF08269E072E025
:1002200090E080E00E941B069C01892B81F7D3950A
:100230000FB6F894DEBF0FBECDBFDF91CF911F91F7
:100240000F91FF90EF90DF90CF90BF90AF90089507
:100250000F931F93CF93DF930F920F92CDB7DEB71B
:10026000862F8A014AE0BE016F5F7F4F90E00E94B7
:100270004E060E94370489E092E00E9437044AE06B
:10028000BE016F5F7F4FC8010E944E060E94370477
:100290008BE092E00E9437040F900F90DF91CF9196
:1002A0001F910F9108952F923F924F925F926F92FC
:1002B0007F928F929F92AF92BF92CF92DF92EF92F6
:1002C000FF920F931F93CF93DF9300D000D00F9234
:1002D0000F92CDB7DEB78F839887862E542E452E8A
:1002E000662309F49DC0912C88EEA82E83E0B82ED9
:1002F00090E9C92EDD24D394E52CF42C10E000E025
:1003000005C00F5F1F4F08301105E9F1D7018D912E
:100310007D018130B1F780917C00807E80937C00EC
:1003200080917C00802B80937C0010927B008091D8
:100330007A00806480937A0080917A0086FDFCCFF9
:1003400060907800709079004AE0BE016F5F7F4F47
:10035000C8010E944E060E94370489E092E00E9484
:1003600037044AE0BE016F5F7F4FC3010E944E0613
:100370000E9437048BE092E00E9437040F5F1F4F0A
:100380000830110519F6C5016F8178850E94910426
:10039000CB01B0E0A0E08B839C83AD83BE83CD0115
:1003A0000E94D9041B013C0120E030E04AE755E4FB
:1003B0006B833C828D837E826B817C818D819E816B
:1003C0000E9468057B018C0120E030E040E85FE39B
:1003D0006B83FC828D831E836B817C818D819E81EA
:1003E0000E94A50487FD35C020E03FEF4FE757E4AA
:1003F0006B817C818D819E810E946305181664F15A
:10040000EB82FC820D831E836B817C818D819E81BA
:100410000E94AA04CB010197F1F7939489106CCF45
:1004200028960FB6F894DEBF0FBECDBFDF91CF91F7
:100430001F910F91FF90EF90DF90CF90BF90AF9002
:100440009F908F907F906F905F904F903F902F90F4
:10045000089581E090E0DFCF20E030E040E251E419
:100460002B823C826D827E826B817C818D819E811C
:100470000E9468056B837C838D839E836B817C8166
:100480008D819E810E94AA04CB01009731F2F60172
:100490003197F1F70197D9F7C0CF2F923F924F9242
:1004A0005F926F927F928F929F92AF92BF92CF9204
:1004B000DF92EF92FF920F931F93CF93DF93CDB70D
:1004C000DEB7C950D3400FB6F894DEBF0FBECDBF24
:1004D000C95FDC4F8883C750D340C85FDC4F988327
:1004E000C850D340C62EC75FDC4F4883C950D340A5
:1004F000252E662309F4E6C0312CD12C78EE872E08
:1005000073E0972EE0E9AE2EBB24B394C75FDC4FB7
:10051000E881C950D340F22D40E003C04F5F48301E
:10052000B9F181918130D1F78FEFD81609F431C13B
:1005300080917C00807E80937C0080917C00842B65
:1005400080937C0010927B0080917A00806480937D
:100550007A0080917A0086FDFCCF2091780030915E
:1005600079008D2D90E0A1E0B2E0AC0FBD1FA80F87
:10057000B91F4C93880F991FA1E0B0E0AC0FBD1FCD
:10058000A80FB91F2D933C93D3944F5F483049F681
:10059000C401C95FDC4F6881C750D340C85FDC4FDE
:1005A0007881C850D3400E949104CB01B0E0A0E014
:1005B000CD5FDC4F88839983AA83BB83C350D3402C
:1005C000CD010E94D9042B013C0120E030E04AE734
:1005D00055E4CD5FDC4F6883C350D340CC5FDC4F24
:1005E0005882C450D340CB5FDC4F8883C550D34082
:1005F000CA5FDC4F7882C650D340CD5FDC4F688144
:1006000079818A819B81C350D3400E9468057B0118
:100610008C0120E030E040E85FE3CD5FDC4F688391
:10062000C350D340CC5FDC4FF882C450D340CB5F83
:10063000DC4F8883C550D340CA5FDC4F1883C65057
:10064000D340CD5FDC4F688179818A819B81C35023
:10065000D3400E94A50487FD4FC020E03FEF4FE745
:1006600057E4CD5FDC4F688179818A819B81C350DB
:10067000D3400E94630518160CF441C0CD5FDC4FD7
:10068000E882C350D340CC5FDC4FF882C450D340E3
:10069000CB5FDC4F0883C550D340CA5FDC4F188363
:1006A000C650D340CD5FDC4F688179818A819B81C0
:1006B000C350D3400E94AA04CB010197F1F73394B1
:1006C000C31024CFC75FDC4F0FB6F894DEBF0FBE58
:1006D000CDBFDF91CF911F910F91FF90EF90DF90F1
:1006E000CF90BF90AF909F908F907F906F905F90D2
:1006F0004F903F902F90089581E090E0DECF20E072
:1007000030E040E251E4CD5FDC4F4882C350D3403B
:10071000CC5FDC4F5882C450D340CB5FDC4F688243
:10072000C550D340CA5FDC4F7882C650D340CD5FFE
:10073000DC4F688179818A819B81C350D3400E94BC
:100740006805CD5FDC4F6883C350D340CC5FDC4F7E
:100750007883C450D340CB5FDC4F8883C550D340EF
:10076000CA5FDC4F9883C650D340CD5FDC4F6881B1
:1007700079818A819B81C350D3400E94AA04CB0116
:10078000009709F49CCFF5013197F1F70197D9F75C
:1007900096CFF12C0F2D10E06801CC0CDD1CA1E0F0
:1007A000B0E0AC0FBD1FCA0EDB1EF601A080B18009
:1007B00081E092E08C0F9D1F080F191FD8018C91CA
:1007C0004AE0BE016F5F7C4F90E00E944E060E949F
:1007D000370489E092E00E9437044AE0BE016F5F6F
:1007E0007C4FC5010E944E060E9437048BE092E0C8
:1007F0000E943704F8011082D6011D921C92F394D6
:10080000C9CF1092C50082E38093C40086E0809334
:10081000C20088E98093C10008959091C00095FFBF
:10082000FCCF8093C60008958091C00087FFFCCF65
:100830008091C60008959C019091C00097FFFCCF65
:100840009091C600F9019193992369F09A3021F0B3
:100850009D3011F09F01F0CF10822E5F3F4F922FFD
:10086000981B892F08959E2F981B892F0895FC01AE
:100870009081992351F031968091C00085FFFCCF83
:100880009093C60091919111F7CF0895CDB7DEB73F
:100890002C970FB6F894DEBF0FBECDBF0E940104A7
:1008A00080917A00876080937A0080917C008064D8
:1008B00080937C0080917A00806880937A00809198
:1008C0007A00806480937A0088E0E0E0F2E0DE0164
:1008D000119601900D928A95E1F79E012F5F3F4F8F
:1008E000AE01455F5F4FBE01645F7F4FCE01099649
:1008F0000E94C3008B85811109C0AE014F5F5F4F1D
:100900006C8589859A850E945301DECF8130E1F69E
:10091000AE014F5F5F4F6C8589859A850E944D02BD
:10092000D3CFAA1BBB1B51E107C0AA1FBB1FA61731
:10093000B70710F0A61BB70B881F991F5A95A9F788
:1009400080959095BC01CD0108950E94160508F48C
:1009500081E008950E94420588F09F5798F0B92FD2
:100960009927B751B0F0E1F0660F771F881F991FE4
:100970001AF0BA95C9F714C0B13091F00E945C0525
:10098000B1E008950C945C05672F782F8827B85F35
:1009900039F0B93FCCF3869577956795B395D9F73C
:1009A0003EF490958095709561957F4F8F4F9F4F46
:1009B0000895E89409C097FB3EF490958095709552
:1009C00061957F4F8F4F9F4F9923A9F0F92F96E99B
:1009D000BB279395F695879577956795B795F11110
:1009E000F8CFFAF4BB0F11F460FF1BC06F5F7F4FAD
:1009F0008F4F9F4F16C0882311F096E911C07723BF
:100A000021F09EE8872F762F05C0662371F096E8C7
:100A1000862F70E060E02AF09A95660F771F881F96
:100A2000DAF7880F9695879597F90895990F00083A
:100A3000550FAA0BE0E8FEEF16161706E807F907B0
:100A4000C0F012161306E407F50798F0621B730B4B
:100A5000840B950B39F40A2661F0232B242B252BCC
:100A600021F408950A2609F4A140A6958FEF811D6F
:100A7000811D089557FD9058440F551F59F05F3F51
:100A800071F04795880F97FB991F61F09F3F79F0B0
:100A900087950895121613061406551FF2CF469532
:100AA000F1DF08C0161617061806991FF1CF8695B4
:100AB0007105610508940895E894BB276627772798
:100AC000CB0197F908950E94160508F48FEF089559
:100AD0000E947B050C94EC050E94DE0538F00E9414
:100AE000E50520F0952311F00C94D5050C94DB0559
:100AF00011240C945D050E943A0570F3959FC1F393
:100B0000950F50E0551F629FF001729FBB27F00DBB
:100B1000B11D639FAA27F00DB11DAA1F649F662710
:100B2000B00DA11D661F829F2227B00DA11D621F5F
:100B3000739FB00DA11D621F839FA00D611D221F19
:100B4000749F3327A00D611D231F849F600D211DFD
:100B5000822F762F6A2F11249F5750409AF0F1F080
:100B600088234AF0EE0FFF1FBB1F661F771F881FE9
:100B700091505040A9F79E3F510580F00C94D50547
:100B80000C945D055F3FE4F3983ED4F3869577952A
:100B90006795B795F795E7959F5FC1F7FE2B880F8F
:100BA000911D9695879597F9089597F99F6780E825
:100BB00070E060E008959FEF80EC089500240A94AF
:100BC0001616170618060906089500240A94121628
:100BD0001306140605060895092E0394000C11F45B
:100BE000882352F0BB0F40F4BF2B11F460FF04C008
:100BF0006F5F7F4F8F4F9F4F0895FC018827992784
:100C0000E89421912032E9F3293010F02E30C8F316
:100C10002B3241F02D3239F4689404C00E9446060C
:100C2000820F911D219120532A30C0F31EF490951C
:100C300081959F4F08954EE052E00C941F06FA01F3
:100C4000A191B081009719F41097E1F0CD01DC017A
:100C5000CD010D90002011F4C00113C0FB012191C2
:100C6000222319F02015D9F7F3CFFB01219120158C
:100C700019F41E92119606C02223C1F70D90002090
:100C8000A1F7D001FA01A193B08308957AE0979F6C
:100C9000902D879F802D910D11240895BB27FB0176
:100CA0005527AA27880F991FAA1FA41710F0A41B65
:100CB00083955051B9F7A05DAA3308F0A95DA193BF
:100CC000009779F7B111B1931192CB010C9468069A
:100CD000DC01FC01672F71917723E1F7329704C0A3
:100CE0007C916D9370836291AE17BF07C8F308952E
:040CF000F894FFCFA6
:0E0CF40000000000000000002C20000A00009C
:00000001FF
