:100000000C9472000C9493000C9493000C94930045
:100010000C9493000C9493000C9493000C94930014
:100020000C9493000C9493000C9493000C94930004
:100030000C9493000C9493000C9493000C949300F4
:100040000C9493000C9493000C9493000C949300E4
:100050000C9493000C9493000C9493000C949300D4
:100060000C9493000C942E010C9473010C94930047
:100070000C9493000C9493000C9493000C949300B4
:100080000C9493000C9493000C9493000C949300A4
:100090000C9493000C9493000C9493000C94930094
:1000A0000C9493000C9493000C9493000C94930084
:1000B0000C9493000C9493000C9493000C944F02B6
:1000C0000C9493000C9493000C9493000C94930064
:1000D0000C9493000C9493000C9493000C94930054
:1000E0000C94930011241FBECFEFD1E2DEBFCDBF31
:1000F00000E00CBF12E0A0E0B2E0ECE9F7E100E0C4
:100100000BBF02C007900D92A231B107D9F725E0CD
:10011000A2E1B2E001C01D92AA31B207E1F70E944C
:10012000C6060C94CC0B0C940000109220018DE0BC
:10013000809321018FE090E0909329018093280122
:100140000895F894E3E7F0E08081826080837894FA
:100150000895F894E3E7F0E080818D7F80837894C0
:100160000895EAE7F0E0808187608083ACE7B0E043
:100170008C9180648C93808180688083808180648E
:100180008083089590917C00907E90937C002091D4
:100190007C00982F9770922B90937C0088708093AE
:1001A0007B0080917A00806480937A0080917A004D
:1001B00086FDFCCF80917800909179000895F894A5
:1001C0001092C50082E38093C40086E08093C20051
:1001D00088E98093C1007894109216021092170556
:1001E00008958091C10080688093C10081E0809370
:1001F0001602809116028130E1F38091C10080687F
:100200008093C1008091190508959C0141E090916F
:10021000C10090689093C10040931602909116021D
:100220009130E1F39091C10090689093C10090915A
:100230001905F9019193992369F09A3021F09D30C5
:1002400011F09F01E4CF10822E5F3F4F922F981B39
:10025000892F08959E2F981B892F08951F921FB6EE
:100260001F9211248F938BB78F93EF93FF938091FD
:10027000C6008093190510921602E1ECF0E080812F
:100280008F778083FF91EF918F918BBF8F911F901C
:100290001FBE1F9018958093180581E08093170565
:1002A00078948091C10080628093C100809117058D
:1002B0008130E1F30895FC018081882399F0319623
:1002C00091E0809318059093170578948091C10070
:1002D00080628093C100809117058130E1F38191A4
:1002E0008111EFCF08951F921FB61F9211248F9393
:1002F0008BB78F93EF93FF93809118058093C6007F
:1003000010921705E1ECF0E080818F7D8083FF91F2
:10031000EF918F918BBF8F911F901FBE1F901895EB
:10032000AF92BF92CF92DF92EF92FF920F931F9303
:10033000CF93DF93CDB7DEB7DA950FB6F894DEBF73
:100340000FBECDBF5C016B017A018901FE013196C0
:1003500091E08091C10080688093C1009093160263
:10036000809116028130E1F38091C1008068809312
:10037000C100809119058193882329F08A3011F0FA
:100380008D3039F7108269E072E0CE0101960E944B
:10039000B7080E949908F5019183808369E072E0B3
:1003A00090E080E00E94B7080E949908F6019183CE
:1003B000808369E072E090E080E00E94B7080E94CC
:1003C0009908F701808368E072E090E080E00E9485
:1003D000B7089C01892B91F0FF24F394C9010E9476
:1003E0009908F801E80FF91FF08269E072E090E0E7
:1003F00080E00E94B7089C01892B81F7D3950FB646
:10040000F894DEBF0FBECDBFDF91CF911F910F914A
:10041000FF90EF90DF90CF90BF90AF900895CF9373
:10042000DF93CDB7DEB7DA950FB6F894DEBF0FBE17
:10043000CDBF7F936F931F928F938BE092E09F933A
:100440008F9381E08F931F92CE0101969F938F939C
:100450000E94EA0889810FB6F894DEBF0FBECDBFB7
:100460008823A1F0FE01329691E0809318059093C5
:10047000170578948091C10080628093C1008091BB
:1004800017058130E1F381918111EFCFD3950FB63C
:10049000F894DEBF0FBECDBFDF91CF9108951F92BC
:1004A0000F920FB60F9211240BB60F929F92AF923C
:1004B000BF92CF92DF92EF92FF920F931F932F93F1
:1004C0003F934F935F936F937F938F939F93AF93DC
:1004D000BF93EF93FF93CF93DF93CDB7DEB7DA955A
:1004E000DEBFCDBF80911202909113028F3F910524
:1004F00008F447C007E113E087E1C82E82E0D82E58
:100500009E012F5F3F4F59019BE0E92E92E0F92EAB
:1005100099249394F801908121810E5F1F4FF60179
:1005200081916F012F939F931F928F93FF92EF9270
:100530009F921F92BF92AF920E94EA0889810FB6E4
:10054000F894DEBF0FBECDBF882399F0FE0132962E
:10055000809318059092170578948091C10080626D
:100560008093C100809117058130E1F38191811161
:10057000EFCF35E00531130769F6109213021092A0
:100580001202D3950FB6F894DEBF0FBECDBFDF9138
:10059000CF91FF91EF91BF91AF919F918F917F91FB
:1005A0006F915F914F913F912F911F910F91FF900C
:1005B000EF90DF90CF90BF90AF909F900F900BBEC9
:1005C0000F900FBE0F901F9018952F923F924F9251
:1005D0005F926F927F928F929F92AF92BF92CF92D3
:1005E000DF92EF92FF920F931F93CF93DF93CDB7DC
:1005F000DEB7CD50D1400FB6F894DEBF0FBECDBFF1
:10060000C45FDE4F8883CC50D140C35FDE4F9883F8
:10061000CD50D140C75FDE4F6883C950D140C65F1F
:10062000DE4F7883CA50D140C95FDE4F4883C75040
:10063000D140C85FDE4F5883C850D140C75FDE4FFE
:1006400028813981C950D140232B09F434C1812C30
:10065000C95FDE4F88819981C750D14008966C01EF
:10066000942F9095C55FDE4F9883CB50D140C95FE2
:10067000DE4F28803980C750D14020943094FF2429
:10068000F39488EE682E83E0782E90E9492E552465
:100690005394C95FDE4F08811981C750D14004C00F
:1006A000C016D10609F45AC0D8018D918D01813050
:1006B000B9F780917C00807E80937C0090917C00D3
:1006C000C55FDE4F8881CB50D1408A0F892B809344
:1006D0007C0010927B0080917A00806480937A0085
:1006E00080917A0086FDFCCF80917800909179000E
:1006F0009F938F93C101800F911F9F938F93EBE086
:10070000F2E0FF93EF9331E03F931F9281E090E09E
:100710008C0F9D1F9F938F930E94EA0889810FB6CB
:10072000F894DEBF0FBECDBF882309F4B9CFFE0118
:10073000329680931805F092170578948091C10045
:1007400080628093C100809117058130E1F381912F
:100750008111EFCFC016D10609F0A6CFC301C45F47
:10076000DE4F6881CC50D140C35FDE4F7881CD50E1
:10077000D1400E942D07CB01B0E0A0E0CF5FDE4F5B
:1007800088839983AA83BB83C150D140CD010E9445
:100790007507CB5FDE4F6883C550D140CA5FDE4F1F
:1007A0007883C650D140982EA92E20E030E04AE749
:1007B00055E4CF5FDE4F6883C150D140CE5FDE4F3E
:1007C0007883C250D140CD5FDE4F8883C350D14083
:1007D000CC5FDE4F9883C450D140CF5FDE4F68813D
:1007E00079818A819B81C150D1400E940408B62E34
:1007F000E72E8C0120E030E040E85FE3CF5FDE4F82
:100800006883C150D140CE5FDE4F7883C250D14063
:10081000CD5FDE4F8883C350D140CC5FDE4F18835D
:10082000C450D140CF5FDE4F688179818A819B813E
:10083000C150D1400E94410787FD67C020E03FEFD3
:100840004FE757E4CF5FDE4F688179818A819B81D2
:10085000C150D1400E94FF0718160CF459C0CF5F59
:10086000DE4FB882C150D140CE5FDE4FE882C25029
:10087000D140CD5FDE4F0883C350D140CC5FDE4F07
:100880001883C450D140CF5FDE4F688179818A815F
:100890009B81C150D1400E944607CB010197F1F7DF
:1008A0008394C75FDE4FE881F981C950D1408E162D
:1008B0001F0608F4EECE8DE28093180581E0809348
:1008C000170578948091C10080628093C100809167
:1008D00017058130E1F3C35FDE4F0FB6F894DEBF3A
:1008E0000FBECDBFDF91CF911F910F91FF90EF9081
:1008F000DF90CF90BF90AF909F908F907F906F9040
:100900005F904F903F902F90089581E090E0C6CF88
:1009100020E030E040E251E4CB5FDE4FA881C550DB
:10092000D140CF5FDE4FA883C150D140CA5FDE4FB8
:10093000B881C650D140CE5FDE4FB883C250D1409F
:10094000CD5FDE4F9882C350D140CC5FDE4FA8828E
:10095000C450D140CF5FDE4F688179818A819B810D
:10096000C150D1400E940408CF5FDE4F6883C15060
:10097000D140CE5FDE4F7883C250D140CD5FDE4F95
:100980008883C350D140CC5FDE4F9883C450D140A0
:10099000CF5FDE4F688179818A819B81C150D140D0
:1009A0000E944607CB01009709F47ACFF2013197F4
:1009B000F1F70197D9F774CF2F923F924F925F9240
:1009C0006F927F928F929F92AF92BF92CF92DF925F
:1009D000EF92FF920F931F93CF93DF93CDB7DEB7C4
:1009E000C550D1400FB6F894DEBF0FBECDBFE82F83
:1009F000392F5B01642E552EF894209173002260EC
:100A0000209373007894672B09F4F3C088EE93E089
:100A10006E2F732F0E942D07CB01B0E0A0E0CF5FB7
:100A2000DE4F88839983AA83BB83C150D140CD0117
:100A30000E947507CB5FDE4F6883C550D140272EDB
:100A4000482E392E20E030E04AE755E4CF5FDE4FF4
:100A50006883C150D140CE5FDE4F7883C250D14011
:100A6000CD5FDE4F8883C350D140CC5FDE4F98838B
:100A7000C450D140CF5FDE4F688179818A819B81EC
:100A8000C150D1400E940408062FF72EE82E792E7F
:100A9000CF5FDE4F6883C150D140CE5FDE4F788399
:100AA000C250D140CD5FDE4F8883C350D140CC5F70
:100AB000DE4F9883C450D140CF5FDE4F688179818B
:100AC0008A819B81C150D1400E944607D62E172FA4
:100AD00020E030E040E85FE3CF5FDE4F688179815E
:100AE0008A819B81C150D1400E9441078824839410
:100AF000912C87FD02C08D2C912E10E060E9C62E4E
:100B0000DD24D394E62DF52D40E003C04F5F48303F
:100B100099F181918130D1F780917C00807E809322
:100B20007C0080917C00842B80937C0010927B0061
:100B300080917A00806480937A0080917A0086FDAB
:100B4000FCCF209178003091790080911202909131
:100B50001302DC01A95EBD4F4C93DC01AA0FBB1F41
:100B6000A95EBC4F2D933C93019690931302809302
:100B700012024F5F483069F620E030E040E85FE362
:100B8000CF5FDE4F0883C150D140CE5FDE4FF88289
:100B9000C250D140CD5FDE4FE882C350D140CC5F20
:100BA000DE4F7882C450D140CF5FDE4F68817981BB
:100BB0008A819B81C150D1400E94410787FD11C0AD
:100BC00020E03FEF4FE757E4CF5FDE4F6881798148
:100BD0008A819B81C150D1400E94FF0718160CF4F6
:100BE00086C0C4010197F1F71F5F1A151B0408F4B2
:100BF00089CFF894809173008D7F809373007894EF
:100C00008091120290911302892B09F446C0C12CE5
:100C100090E080E0DE0111967D010BE012E0DD2422
:100C2000D394FC01EE0FFF1FE95EFC4F21812F934F
:100C300020812F93895E9D4FFC0180811F928F93AD
:100C40001F930F93DF921F92FF92EF920E94EA0888
:100C500089810FB6F894DEBF0FBECDBFFE0132967C
:100C6000882389F080931805D09217057894809195
:100C7000C10080628093C100809117058130E1F34B
:100C800081918111EFCFC3948C2D90E020911202BD
:100C9000309113028217930720F28DE2809318059A
:100CA00081E08093170578948091C10080628093E1
:100CB000C100809117058130E1F3CB5FDE4F0FB6A5
:100CC000F894DEBF0FBECDBFDF91CF911F910F9182
:100CD000FF90EF90DF90CF90BF90AF909F908F905C
:100CE0007F906F905F904F903F902F90089520E0FD
:100CF00030E040E251E4CB5FDE4F9881C550D140F7
:100D0000CF5FDE4F9883C150D140CE5FDE4F288247
:100D1000C250D140CD5FDE4F4882C350D140CC5F3E
:100D2000DE4F3882C450D140CF5FDE4F6881798179
:100D30008A819B81C150D1400E940408CF5FDE4F61
:100D40006883C150D140CE5FDE4F7883C250D1401E
:100D5000CD5FDE4F8883C350D140CC5FDE4F988398
:100D6000C450D140CF5FDE4F688179818A819B81F9
:100D7000C150D1400E944607CB01009709F434CFFF
:100D8000F6013197F1F70197D9F72ECFCDB7DEB73E
:100D90002D970FB6F894DEBF0FBECDBF1092200185
:100DA0008DE0809321018FE090E090932901809362
:100DB0002801F8941092C50082E38093C40086E075
:100DC0008093C20088E98093C10078941092160243
:100DD0001092170580917A00876080937A00809145
:100DE0007C00806480937C0080917A00806880938E
:100DF0007A0080917A00806480937A0088E0E0E055
:100E0000F2E0DE01119601900D928A95E1F79E01C4
:100E10002F5F3F4FAE01435F5F4FBE01675F7F4F64
:100E2000CE010B960E9490018D8581110AC06985C3
:100E30007A85AE014F5F5F4F8B859C850E94E502EE
:100E4000DDCF8130D9F669857A85AE014F5F5F4F7E
:100E50008B859C850E94DC04D1CFAA1BBB1B51E172
:100E600007C0AA1FBB1FA617B70710F0A61BB70B1A
:100E7000881F991F5A95A9F780959095BC01CD01BF
:100E800008950E94B20708F481E008950E94DE07E9
:100E900088F09F5798F0B92F9927B751B0F0E1F03B
:100EA000660F771F881F991F1AF0BA95C9F714C0EB
:100EB000B13091F00E94F807B1E008950C94F80762
:100EC000672F782F8827B85F39F0B93FCCF3869524
:100ED00077956795B395D9F73EF490958095709581
:100EE00061957F4F8F4F9F4F0895E89409C097FBFE
:100EF0003EF490958095709561957F4F8F4F9F4FF1
:100F00009923A9F0F92F96E9BB279395F695879534
:100F100077956795B795F111F8CFFAF4BB0F11F4F7
:100F200060FF1BC06F5F7F4F8F4F9F4F16C088239E
:100F300011F096E911C0772321F09EE8872F762FD4
:100F400005C0662371F096E8862F70E060E02AF015
:100F50009A95660F771F881FDAF7880F9695879501
:100F600097F90895990F0008550FAA0BE0E8FEEFD6
:100F700016161706E807F907C0F012161306E4075D
:100F8000F50798F0621B730B840B950B39F40A2656
:100F900061F0232B242B252B21F408950A2609F434
:100FA000A140A6958FEF811D811D089557FD905892
:100FB000440F551F59F05F3F71F04795880F97FB1D
:100FC000991F61F09F3F79F08795089512161306D7
:100FD0001406551FF2CF4695F1DF08C01616170606
:100FE0001806991FF1CF869571056105089408953B
:100FF000E894BB2766277727CB0197F908950E94CD
:10100000B20708F48FEF08950E9417080C9488081F
:101010000E947A0838F00E94810820F0952311F090
:101020000C9471080C94770811240C94F9070E9411
:10103000D60770F3959FC1F3950F50E0551F629F3F
:10104000F001729FBB27F00DB11D639FAA27F00D21
:10105000B11DAA1F649F6627B00DA11D661F829F48
:101060002227B00DA11D621F739FB00DA11D621F2D
:10107000839FA00D611D221F749F3327A00D611D4A
:10108000231F849F600D211D822F762F6A2F11242C
:101090009F5750409AF0F1F088234AF0EE0FFF1F5F
:1010A000BB1F661F771F881F91505040A9F79E3FB6
:1010B000510580F00C9471080C94F9075F3FE4F33C
:1010C000983ED4F3869577956795B795F795E7950C
:1010D0009F5FC1F7FE2B880F911D9695879597F915
:1010E000089597F99F6780E870E060E008959FEFAA
:1010F00080EC089500240A941616170618060906AF
:10110000089500240A94121613061406050608957D
:10111000092E0394000C11F4882352F0BB0F40F405
:10112000BF2B11F460FF04C06F5F7F4F8F4F9F4F45
:101130000895FC0188279927E89421912032E9F34A
:10114000293010F02E30C8F32B3241F02D3239F413
:10115000689404C00E94E208820F911D21912053DF
:101160002A30C0F31EF4909581959F4F089544E175
:1011700052E00C94BB08FA01A191B081009719F4D8
:101180001097E1F0CD01DC01CD010D90002011F4AC
:10119000C00113C0FB012191222319F02015D9F7BA
:1011A000F3CFFB012191201519F41E92119606C070
:1011B0002223C1F70D900020A1F7D001FA01A193DD
:1011C000B08308957AE0979F902D879F802D910D91
:1011D000112408950F931F93CF93DF93CDB7DEB7FC
:1011E0002E970FB6F894DEBF0FBECDBF0E891F89B4
:1011F000888D998D26E02C831A83098397FF02C07E
:1012000080E090E801979E838D83AE01445E5F4F3E
:101210006A8D7B8DCE0101960E9427094D815E81EA
:1012200057FD0AC02F813885421753070CF49A01E5
:10123000020F131FF80110822E960FB6F894DEBF2E
:101240000FBECDBFDF91CF911F910F9108952F92C7
:101250003F924F925F926F927F928F929F92AF9246
:10126000BF92CF92DF92EF92FF920F931F93CF9393
:10127000DF93CDB7DEB72F970FB6F894DEBF0FBE62
:10128000CDBF7C013B018A01DC0117961C921E92A6
:10129000169713968C9181FFD8C19AE0292EFE01F2
:1012A00031964F01D70113969C91F30193FD8591DF
:1012B00093FF81913F01882309F448C1853239F4B5
:1012C00093FD859193FF81913F01853229F4B70108
:1012D00090E00E943E0BE6CFB12C412C512CBFE197
:1012E000B51538F08B3209F188F4803201F1833280
:1012F00021F157FC3AC020ED280F2A3040F556FE68
:101300001FC0B29C200D1124B22E06C08D3291F068
:10131000803379F7689450F8F30193FD859193FF3A
:1013200081913F018111DBCF20C0689451F868940E
:1013300052F8F2CF689453F8EFCF689454F8ECCF9A
:10134000429C200D1124422E689455F8E5CF8E3230
:1013500029F456FCFBC0689456F8DECF8C3619F49D
:10136000689457F8D9CF8836B9F2982F9F7D955455
:101370009330C0F08336A1F18337C1F1833509F092
:101380005BC0D801CD90DD908D016B2D70E056FCD7
:1013900002C06FEF7FEFC6010E94280B5C016894CA
:1013A00057F80AC00C5F1F4FEFE3E983AA24A39408
:1013B000B12C6401E89457F853FC04C04A141B0490
:1013C00009F018F5342CA114B10431F5332009F4D7
:1013D00069CFB70180E290E00E943E0B3A94F6CFCD
:1013E000D8018C9189830E5F1F4FE0CFF801C19027
:1013F000D1908F016B2D70E056FC02C06FEF7FEF34
:10140000C6010E94330B5C01D5CFB70180E290E0AA
:101410000E943E0B4A94D2CFF60157FC859157FEAD
:1014200081916F01B70190E00E943E0B31103A9418
:10143000B1E0AB1AB108C7CF843619F0893609F08C
:1014400074C0F80157FE6AC06191719181919191C8
:101450008F01E52DEF76DE2E97FF09C090958095E0
:10146000709561957F4F8F4F9F4F6894D7F82AE012
:1014700030E0A4010E946E0BC82EC818AC2C5D2C65
:10148000D6FE0CC0E89450F8CB1440F4D4FE05C04E
:10149000D2FC03C05D2D5E7E552EAB2C54FEADC03C
:1014A000FE01EC0DF11D8081803309F09FC0652D98
:1014B000697E562E752D7870372E53FCADC050FEC8
:1014C000A7C0BC2CA41418F44C0CB42CBA1854FEAD
:1014D000A9C0B70180E390E00E943E0B52FE09C014
:1014E00088E790E051FE02C088E590E0B7010E94D5
:1014F0003E0BCB1408F4A2C0CA94D12C8FEFC81AAB
:10150000D80AC80CD91CD6018E916D01B70190E0A4
:101510000E943E0B8C149D04B1F758CF61917191DC
:10152000072E000C880B990B93CFD52CE894D4F898
:101530002AE030E08537E1F1F52DF97FDF2E8037A5
:1015400051F100F5883551F18F3681F1F70186812F
:1015500097812F960FB6F894DEBF0FBECDBFDF91F7
:10156000CF911F910F91FF90EF90DF90CF90BF90A0
:10157000AF909F908F907F906F905F904F903F9033
:101580002F900895883711F7D4FE02C06894D2F8DE
:1015900020E130E00DC06894D4F8F6CF54FE03C0CB
:1015A0002F2F2660D22E20E132E002C028E030E06A
:1015B000F801D7FE15C041915191619171914C870D
:1015C0005D876E877F878F01A4016C857D858E8501
:1015D0009F850E946E0BC82EC818E894D7F84ECF8E
:1015E00081919191AC0170E060E0E9CF52FC02C0C2
:1015F000A39460CFA394A3945DCF852D867809F43E
:1016000059CFF6CFB70180E290E00E943E0BA39441
:10161000A414C0F3312C5BCF342C3A18A41408F472
:1016200056CFF8CF852D867809F463CF8BE251FE33
:1016300080E257FC8DE2B70190E059CFB70180E31B
:1016400090E00E943E0BBA9454CF8FEF9FEF81CF72
:10165000FC010590615070400110D8F7809590957D
:101660008E0F9F1F0895FC01615070400190011082
:10167000D8F7809590958E0F9F1F08950F931F9315
:10168000CF93DF93182F092FEB018B8181FD09C0C8
:101690001FEF0FEF812F902FDF91CF911F910F91AF
:1016A000089582FF14C02E813F818C819D8128176F
:1016B00039073CF4E881F981CF0101969983888349
:1016C00010838E819F8101969F838E83E3CFE8856F
:1016D000F985812F1995892BA1F3DACFFA01AA2771
:1016E000283051F1203181F1E8946F936E7F6E5F65
:1016F0007F4F8F4F9F4FAF4FB1E03ED0B4E03CD013
:10170000670F781F891F9A1FA11D680F791F8A1FF5
:10171000911DA11D6A0F711D811D911DA11D20D05C
:1017200009F468943F912AE0269F11243019305D16
:101730003193DEF6CF010895462F4770405D419307
:10174000B3E00FD0C9F7F6CF462F4F70405D4A3354
:1017500018F0495D31FD4052419302D0A9F7EACF1C
:10176000B4E0A6959795879577956795BA95C9F74B
:1017700000976105710508959B01AC010A2E06943E
:101780005795479537952795BA95C9F7620F731FF7
:0C179000841F951FA01D0895F894FFCF42
:10179C0000000000000000002C20002564202564BF
:0217AC000A0031
:00000001FF
