:100000000C9472000C9493000C9493000C94930045
:100010000C9493000C9493000C9493000C94930014
:100020000C9493000C9493000C9493000C94930004
:100030000C9493000C9493000C9493000C949300F4
:100040000C9493000C9493000C9493000C949300E4
:100050000C9493000C9493000C9493000C949300D4
:100060000C9493000C941F010C944C010C9493007D
:100070000C9493000C9493000C9493000C949300B4
:100080000C9493000C9493000C9493000C949300A4
:100090000C9493000C9493000C9493000C94930094
:1000A0000C9493000C9493000C9493000C94930084
:1000B0000C9493000C9493000C9493000C94930074
:1000C0000C9493000C9493000C9493000C94930064
:1000D0000C9493000C9493000C9493000C94930054
:1000E0000C94930011241FBECFEFD1E2DEBFCDBF31
:1000F00000E00CBF12E0A0E0B2E0E4E4F6E100E0D2
:100100000BBF02C007900D92A231B107D9F727E0CB
:10011000A2E1B2E001C01D92AC31B207E1F70E944A
:1001200014060C94200B0C940000109220018DE01A
:10013000809321018FE090E0909329018093280122
:100140000895F894E3E7F0E08081826080837894FA
:100150000895F894E3E7F0E080818D7F80837894C0
:100160000895EAE7F0E0808187608083ACE7B0E043
:100170008C9180648C93808180688083808180648E
:100180008083089590917C00907E90937C002091D4
:100190007C00982F9770922B90937C0088708093AE
:1001A0007B0080917A00806480937A0080917A004D
:1001B00086FDFCCF8091780090917900089510928F
:1001C000C50082E38093C40086E08093C20088E982
:1001D0008093C10078941092190710921804089522
:1001E000BC0188E193E00E94080810921B0710925E
:1001F0001A0781E0809319078091C1008062809383
:10020000C100809119078130E1F30895E6E1F2E041
:1002100020E031E0DF01A9011D9241505040E1F79B
:10022000109217031092160321E0209318042091D6
:1002300018042130E1F367E172E00C9408081F9282
:100240001FB61F9211248F938BB78F939F93EF93B9
:10025000FF938091C6008A30E1F0E0911603F0919F
:1002600017038091C600EA5EFD4F808380911603DC
:100270009091170301969093170380931603FF91B3
:10028000EF919F918F918BBF8F911F901FBE1F90F9
:10029000189510921804F3CF1F921FB61F921124C5
:1002A0008F938BB78F939F93EF93FF93E0911A07F0
:1002B000F0911B07E85EFC4F80818093C600E091BF
:1002C0001A07F0911B07E85EFC4F808181110CC07A
:1002D00010921907FF91EF919F918F918BBF8F9192
:1002E0001F901FBE1F90189580911A0790911B07B1
:1002F000019690931B0780931A078091C10080623A
:100300008093C100E7CFAF92BF92CF92DF92EF927E
:10031000FF920F931F93CF93DF93CDB7DEB7DA959C
:100320000FB6F894DEBF0FBECDBF5C016B017A0142
:100330008901E6E1F2E080E091E0DF019C011D929D
:1003400021503040E1F7109217031092160381E01C
:1003500080931804809118048130E1F367E172E022
:10036000CE0101960E94080869E072E0CE01019674
:100370000E9404080E94E607D5018D939C9369E0D2
:1003800072E090E080E00E9404080E94E607F60117
:100390009183808369E072E090E080E00E9404082D
:1003A0000E94E607D7018C9368E072E090E080E05D
:1003B0000E9404089C01892B91F0FF24F394C90149
:1003C0000E94E607F801E80FF91FF08269E072E089
:1003D00090E080E00E9404089C01892B81F7D3956E
:1003E0000FB6F894DEBF0FBECDBFDF91CF911F9146
:1003F0000F91FF90EF90DF90CF90BF90AF90089556
:10040000EF92FF921F93CF93DF93CDB7DEB7DA95CC
:100410000FB6F894DEBF0FBECDBF7F936F931F92D0
:100420008F938BE092E09F938F9311E01F931F9225
:10043000CE0101967C019F938F930E943E08B701E5
:1004400088E193E00E94080810921B0710921A0797
:10045000109319078091C10080628093C1000FB68C
:10046000F894DEBF0FBECDBF809119078130E1F354
:10047000D3950FB6F894DEBF0FBECDBFDF91CF91FD
:100480001F91FF90EF9008952F923F924F925F92AD
:100490006F927F928F929F92AF92BF92CF92DF9294
:1004A000EF92FF920F931F93CF93DF93CDB7DEB7F9
:1004B000CC50D1400FB6F894DEBF0FBECDBFC55FA4
:1004C000DE4F8883CB50D140C45FDE4F9883CC5041
:1004D000D140C95FDE4F6883C750D140C85FDE4F4F
:1004E0007883C850D140CB5FDE4F4883C550D140A0
:1004F000CA5FDE4F5883C650D140C95FDE4F888146
:100500009981C750D140892B09F423C1712CCB5F4D
:10051000DE4FA881B981C550D14018967D01642E67
:100520006094CB5FDE4FE881F981C550D140E09502
:10053000F095C75FDE4FF983E883C950D140CE0103
:1005400001965C0180E9482E55245394CB5FDE4F21
:1005500008811981C550D14004C00E151F0509F44A
:1005600055C0D8018D918D018130B9F780917C0003
:10057000807E80937C0090917C00862D8A0F892B51
:1005800080937C0010927B0080917A00806480933D
:100590007A0080917A0086FDFCCF8091780090915E
:1005A00079009F938F93C75FDE4F88819981C950EF
:1005B000D140800F911F9F938F93EBE0F2E0FF9368
:1005C000EF9381E08F931F92BF92AF920E943E08FB
:1005D000B50188E193E00E94080810921B07109271
:1005E0001A0791E0909319078091C100806280936F
:1005F000C1000FB6F894DEBF0FBECDBF80911907C2
:100600008130E1F30E151F0509F0ABCF88EE93E0C2
:10061000C55FDE4F6881CB50D140C45FDE4F78812B
:10062000CC50D1400E947A06CB01B0E0A0E0CF5F71
:10063000DE4F88839983AA83BB83C150D140CD010B
:100640000E94C2061B014C0120E030E04AE755E45D
:10065000CF5FDE4F6883C150D140CE5FDE4F38821E
:10066000C250D140CD5FDE4F8883C350D140CC5FB4
:10067000DE4F9882C450D140CF5FDE4F68817981D0
:100680008A819B81C150D1400E9451076B018C012E
:1006900020E030E040E85FE3CF5FDE4F6883C15089
:1006A000D140CE5FDE4FD882C250D140CD5FDE4F09
:1006B0008883C350D140CC5FDE4F1883C450D140F3
:1006C000CF5FDE4F688179818A819B81C150D140A3
:1006D0000E948E0687FD6DC020E03FEF4FE757E494
:1006E000CF5FDE4F688179818A819B81C150D14083
:1006F0000E944C0718160CF45FC0CF5FDE4FC88213
:10070000C150D140CE5FDE4FD882C250D140CD5FC4
:10071000DE4F0883C350D140CC5FDE4F1883C450F6
:10072000D140CF5FDE4F688179818A819B81C15042
:10073000D1400E949306CB010197F1F77394C95FF2
:10074000DE4FA881B981C750D1407A161B0608F444
:10075000FDCE8DE290E090931903809318031092E0
:100760001B0710921A0781E0809319078091C1003E
:1007700080628093C100809119078130E1F3C45FEA
:10078000DE4F0FB6F894DEBF0FBECDBFDF91CF9125
:100790001F910F91FF90EF90DF90CF90BF90AF909F
:1007A0009F908F907F906F905F904F903F902F9091
:1007B000089581E090E0C0CF20E030E040E251E4D5
:1007C000CF5FDE4F2882C150D140CE5FDE4F3882EE
:1007D000C250D140CD5FDE4F8882C350D140CC5F44
:1007E000DE4F9882C450D140CF5FDE4F688179815F
:1007F0008A819B81C150D1400E945107CF5FDE4F5B
:100800006883C150D140CE5FDE4F7883C250D14063
:10081000CD5FDE4F8883C350D140CC5FDE4F9883DD
:10082000C450D140CF5FDE4F688179818A819B813E
:10083000C150D1400E949306CB01009709F47ECFAE
:10084000F2013197F1F70197D9F778CF2F923F92C4
:100850004F925F926F927F928F929F92AF92BF92D0
:10086000CF92DF92EF92FF920F931F93CF93DF937C
:10087000CDB7DEB7C550D1400FB6F894DEBF0FBE7E
:10088000CDBFE82F392F5B01642E552EF8942091AF
:1008900073002260209373007894672B09F4F3C0EF
:1008A00088EE93E06E2F732F0E947A06CB01B0E0A2
:1008B000A0E0CF5FDE4F88839983AA83BB83C150BA
:1008C000D140CD010E94C206CB5FDE4F6883C55088
:1008D000D140272E482E392E20E030E04AE755E45B
:1008E000CF5FDE4F6883C150D140CE5FDE4F78834B
:1008F000C250D140CD5FDE4F8883C350D140CC5F22
:10090000DE4F9883C450D140CF5FDE4F688179813C
:100910008A819B81C150D1400E945107062FF72E3A
:10092000E82E792ECF5FDE4F6883C150D140CE5F75
:10093000DE4F7883C250D140CD5FDE4F8883C350F5
:10094000D140CC5FDE4F9883C450D140CF5FDE4FA3
:10095000688179818A819B81C150D1400E94930630
:10096000D62E172F20E030E040E85FE3CF5FDE4F68
:10097000688179818A819B81C150D1400E948E0615
:1009800088248394912C87FD02C08D2C912E10E039
:1009900060E9C62EDD24D394E62DF52D40E003C09A
:1009A0004F5F483099F181918130D1F780917C007F
:1009B000807E80937C0080917C00842B80937C00DF
:1009C00010927B0080917A00806480937A008091FD
:1009D0007A0086FDFCCF20917800309179008091DB
:1009E000120290911302DC01A75EBB4F4C93DC0115
:1009F000AA0FBB1FA75EBA4F2D933C93019690930D
:100A00001302809312024F5F483069F620E030E015
:100A100040E85FE3CF5FDE4F0883C150D140CE5F37
:100A2000DE4FF882C250D140CD5FDE4FE882C35026
:100A3000D140CC5FDE4F7882C450D140CF5FDE4FD3
:100A4000688179818A819B81C150D1400E948E0644
:100A500087FD11C020E03FEF4FE757E4CF5FDE4F47
:100A6000688179818A819B81C150D1400E944C0765
:100A700018160CF48AC0C4010197F1F71F5F1A150C
:100A80001B0408F489CFF894809173008D7F8093C4
:100A9000730078948091120290911302892B09F4CB
:100AA00044C0D12C90E080E0DE0111967D010BE086
:100AB00012E0CC24C394FC01EE0FFF1FE75EFA4F57
:100AC00021812F9320812F93875E9B4FFC01808192
:100AD0001F928F931F930F93CF921F92FF92EF92CB
:100AE0000E943E08B70188E193E00E940808109236
:100AF0001B0710921A07C09219078091C1008062EB
:100B00008093C1000FB6F894DEBF0FBECDBF8091B9
:100B100019078130E1F3D3948D2D90E020911202DA
:100B2000309113028217930730F28DE290E0909398
:100B300019038093180310921B0710921A0781E083
:100B4000809319078091C10080628093C1008091D9
:100B500019078130E1F3CB5FDE4F0FB6F894DEBFAB
:100B60000FBECDBFDF91CF911F910F91FF90EF90FE
:100B7000DF90CF90BF90AF909F908F907F906F90BD
:100B80005F904F903F902F90089520E030E040E23A
:100B900051E4CB5FDE4F9881C550D140CF5FDE4F2F
:100BA0009883C150D140CE5FDE4F2882C250D140E1
:100BB000CD5FDE4F4882C350D140CC5FDE4F3882DC
:100BC000C450D140CF5FDE4F688179818A819B819B
:100BD000C150D1400E945107CF5FDE4F6883C150A2
:100BE000D140CE5FDE4F7883C250D140CD5FDE4F23
:100BF0008883C350D140CC5FDE4F9883C450D1402E
:100C0000CF5FDE4F688179818A819B81C150D1405D
:100C10000E949306CB01009709F430CFF60131977B
:100C2000F1F70197D9F72ACFCDB7DEB72D970FB6D9
:100C3000F894DEBF0FBECDBF109220018DE08093EF
:100C400021018FE090E09093290180932801109278
:100C5000C50082E38093C40086E08093C20088E9E7
:100C60008093C10078941092190710921804809113
:100C70007A00876080937A0080917C008064809302
:100C80007C0080917A00806880937A0080917A005D
:100C9000806480937A0088E0E0E0F2E0DE01119663
:100CA00001900D928A95E1F79E012F5F3F4FAE01B3
:100CB000435F5F4FBE01675F7F4FCE010B960E947F
:100CC00083018D8581110AC069857A85AE014F5FE8
:100CD0005F4F8B859C850E944402DDCF8130D9F621
:100CE00069857A85AE014F5F5F4F8B859C850E9439
:100CF0002604D1CFAA1BBB1B51E107C0AA1FBB1FF3
:100D0000A617B70710F0A61BB70B881F991F5A9597
:100D1000A9F780959095BC01CD0108950E94FF062A
:100D200008F481E008950E942B0788F09F5798F0FF
:100D3000B92F9927B751B0F0E1F0660F771F881FE0
:100D4000991F1AF0BA95C9F714C0B13091F00E94FA
:100D50004507B1E008950C944507672F782F882741
:100D6000B85F39F0B93FCCF3869577956795B39521
:100D7000D9F73EF490958095709561957F4F8F4F90
:100D80009F4F0895E89409C097FB3EF49095809595
:100D9000709561957F4F8F4F9F4F9923A9F0F92F41
:100DA00096E9BB279395F695879577956795B795BF
:100DB000F111F8CFFAF4BB0F11F460FF1BC06F5FA5
:100DC0007F4F8F4F9F4F16C0882311F096E911C0B7
:100DD000772321F09EE8872F762F05C0662371F0D8
:100DE00096E8862F70E060E02AF09A95660F771FEC
:100DF000881FDAF7880F9695879597F90895990FC8
:100E00000008550FAA0BE0E8FEEF16161706E807D4
:100E1000F907C0F012161306E407F50798F0621BF5
:100E2000730B840B950B39F40A2661F0232B242BCA
:100E3000252B21F408950A2609F4A140A6958FEFE9
:100E4000811D811D089557FD9058440F551F59F07D
:100E50005F3F71F04795880F97FB991F61F09F3FA7
:100E600079F087950895121613061406551FF2CFD0
:100E70004695F1DF08C0161617061806991FF1CF20
:100E800086957105610508940895E894BB27662747
:100E90007727CB0197F908950E94FF0608F48FEF9A
:100EA00008950E9464070C94D5070E94C70738F084
:100EB0000E94CE0720F0952311F00C94BE070C94ED
:100EC000C40711240C9446070E94230770F3959FD2
:100ED000C1F3950F50E0551F629FF001729FBB2731
:100EE000F00DB11D639FAA27F00DB11DAA1F649FCD
:100EF0006627B00DA11D661F829F2227B00DA11D80
:100F0000621F739FB00DA11D621F839FA00D611D05
:100F1000221F749F3327A00D611D231F849F600D26
:100F2000211D822F762F6A2F11249F5750409AF04F
:100F3000F1F088234AF0EE0FFF1FBB1F661F771FDB
:100F4000881F91505040A9F79E3F510580F00C94A6
:100F5000BE070C9446075F3FE4F3983ED4F38695B2
:100F600077956795B795F795E7959F5FC1F7FE2B46
:100F7000880F911D9695879597F9089597F99F6722
:100F800080E870E060E008959FEF80EC0895002411
:100F90000A941616170618060906089500240A94DE
:100FA00012161306140605060895092E0394000C64
:100FB00011F4882352F0BB0F40F4BF2B11F460FFF3
:100FC00004C06F5F7F4F8F4F9F4F0895FC018827AC
:100FD0009927E89421912032E9F3293010F02E303E
:100FE000C8F32B3241F02D3239F4689404C00E94CA
:100FF0003608820F911D219120532A30C0F31EF430
:10100000909581959F4F089544E152E00C940F080C
:10101000FB01DC0101900D920020E1F70895FA0137
:10102000A191B081009719F41097E1F0CD01DC0196
:10103000CD010D90002011F4C00113C0FB012191DE
:10104000222319F02015D9F7F3CFFB0121912015A8
:1010500019F41E92119606C02223C1F70D900020AC
:10106000A1F7D001FA01A193B08308957AE0979F88
:10107000902D879F802D910D112408950F931F931C
:10108000CF93DF93CDB7DEB72E970FB6F894DEBFC0
:101090000FBECDBF0E891F89888D998D26E02C83C8
:1010A0001A83098397FF02C080E090E801979E832E
:1010B0008D83AE01445E5F4F6A8D7B8DCE010196BC
:1010C0000E947B084D815E8157FD0AC02F813885C3
:1010D000421753070CF49A01020F131FF8011082F4
:1010E0002E960FB6F894DEBF0FBECDBFDF91CF9125
:1010F0001F910F9108952F923F924F925F926F929E
:101100007F928F929F92AF92BF92CF92DF92EF9297
:10111000FF920F931F93CF93DF93CDB7DEB72F9737
:101120000FB6F894DEBF0FBECDBF7C013B018A0134
:10113000DC0117961C921E92169713968C9181FFD4
:10114000D8C19AE0292EFE0131964F01D70113969E
:101150009C91F30193FD859193FF81913F01882339
:1011600009F448C1853239F493FD859193FF81914B
:101170003F01853229F4B70190E00E94920AE6CF40
:10118000B12C412C512CBFE1B51538F08B3209F14F
:1011900088F4803201F1833221F157FC3AC020ED0E
:1011A000280F2A3040F556FE1FC0B29C200D112496
:1011B000B22E06C08D3291F0803379F7689450F8E2
:1011C000F30193FD859193FF81913F018111DBCF65
:1011D00020C0689451F8689452F8F2CF689453F89C
:1011E000EFCF689454F8ECCF429C200D1124422E8E
:1011F000689455F8E5CF8E3229F456FCFBC068940C
:1012000056F8DECF8C3619F4689457F8D9CF883663
:10121000B9F2982F9F7D95549330C0F08336A1F199
:101220008337C1F1833509F05BC0D801CD90DD90E3
:101230008D016B2D70E056FC02C06FEF7FEFC60191
:101240000E947C0A5C01689457F80AC00C5F1F4F2B
:10125000EFE3E983AA24A394B12C6401E89457F83E
:1012600053FC04C04A141B0409F018F5342CA114D3
:10127000B10431F5332009F469CFB70180E290E081
:101280000E94920A3A94F6CFD8018C9189830E5F1E
:101290001F4FE0CFF801C190D1908F016B2D70E00E
:1012A00056FC02C06FEF7FEFC6010E94870A5C0107
:1012B000D5CFB70180E290E00E94920A4A94D2CF43
:1012C000F60157FC859157FE81916F01B70190E0BF
:1012D0000E94920A31103A94B1E0AB1AB108C7CF1C
:1012E000843619F0893609F074C0F80157FE6AC0D7
:1012F00061917191819191918F01E52DEF76DE2EB3
:1013000097FF09C090958095709561957F4F8F4F9D
:101310009F4F6894D7F82AE030E0A4010E94C20AE7
:10132000C82EC818AC2C5D2CD6FE0CC0E89450F822
:10133000CB1440F4D4FE05C0D2FC03C05D2D5E7E0C
:10134000552EAB2C54FEADC0FE01EC0DF11D80817D
:10135000803309F09FC0652D697E562E752D7870FB
:10136000372E53FCADC050FEA7C0BC2CA41418F4FB
:101370004C0CB42CBA1854FEA9C0B70180E390E01D
:101380000E94920A52FE09C088E790E051FE02C016
:1013900088E590E0B7010E94920ACB1408F4A2C03D
:1013A000CA94D12C8FEFC81AD80AC80CD91CD60100
:1013B0008E916D01B70190E00E94920A8C149D04F9
:1013C000B1F758CF61917191072E000C880B990BE2
:1013D00093CFD52CE894D4F82AE030E08537E1F1BA
:1013E000F52DF97FDF2E803751F100F5883551F169
:1013F0008F3681F1F701868197812F960FB6F89489
:10140000DEBF0FBECDBFDF91CF911F910F91FF9037
:10141000EF90DF90CF90BF90AF909F908F907F9094
:101420006F905F904F903F902F900895883711F7FD
:10143000D4FE02C06894D2F820E130E00DC0689478
:10144000D4F8F6CF54FE03C02F2F2660D22E20E111
:1014500032E002C028E030E0F801D7FE15C041912B
:101460005191619171914C875D876E877F878F0164
:10147000A4016C857D858E859F850E94C20AC82E39
:10148000C818E894D7F84ECF81919191AC0170E0E3
:1014900060E0E9CF52FC02C0A39460CFA394A39470
:1014A0005DCF852D867809F459CFF6CFB70180E25C
:1014B00090E00E94920AA394A414C0F3312C5BCF55
:1014C000342C3A18A41408F456CFF8CF852D86781A
:1014D00009F463CF8BE251FE80E257FC8DE2B70145
:1014E00090E059CFB70180E390E00E94920ABA944D
:1014F00054CF8FEF9FEF81CFFC010590615070407A
:101500000110D8F7809590958E0F9F1F0895FC01CC
:101510006150704001900110D8F7809590958E0F22
:101520009F1F08950F931F93CF93DF93182F092FB9
:10153000EB018B8181FD09C01FEF0FEF812F902FF1
:10154000DF91CF911F910F91089582FF14C02E81DA
:101550003F818C819D81281739073CF4E881F9810E
:10156000CF0101969983888310838E819F81019694
:101570009F838E83E3CFE885F985812F1995892B89
:10158000A1F3DACFFA01AA27283051F1203181F1F5
:10159000E8946F936E7F6E5F7F4F8F4F9F4FAF4F7B
:1015A000B1E03ED0B4E03CD0670F781F891F9A1F8E
:1015B000A11D680F791F8A1F911DA11D6A0F711D42
:1015C000811D911DA11D20D009F468943F912AE04E
:1015D000269F11243019305D3193DEF6CF01089536
:1015E000462F4770405D4193B3E00FD0C9F7F6CF67
:1015F000462F4F70405D4A3318F0495D31FD40522F
:10160000419302D0A9F7EACFB4E0A69597958795C4
:1016100077956795BA95C9F70097610571050895A3
:101620009B01AC010A2E069457954795379527954F
:10163000BA95C9F7620F731F841F951FA01D0895E7
:04164000F894FFCF4C
:1016440000000000000000002C2000256420256418
:021654000A008A
:00000001FF
