:100000000C9472000C9493000C9493000C94930045
:100010000C9493000C9493000C9493000C94930014
:100020000C9493000C9493000C9493000C94930004
:100030000C9493000C9493000C9493000C949300F4
:100040000C9493000C9493000C9493000C949300E4
:100050000C9493000C9493000C9493000C949300D4
:100060000C9493000C9493000C9493000C949300C4
:100070000C9493000C9493000C9493000C949300B4
:100080000C9493000C9493000C9493000C949300A4
:100090000C9493000C9493000C9493000C94930094
:1000A0000C9493000C9493000C9493000C94930084
:1000B0000C9493000C9493000C9493000C94930074
:1000C0000C9493000C9493000C9493000C94930064
:1000D0000C9493000C9493000C9493000C94930054
:1000E0000C94930011241FBECFEFD1E2DEBFCDBF31
:1000F00000E00CBF12E0A0E0B2E0E0EEF8E000E0CB
:100100000BBF02C007900D92A236B107D9F722E0CB
:10011000A2E6B2E001C01D92A436B207E1F70E9448
:100120001C020C946E040C940000EAE7F0E080815D
:1001300087608083ACE7B0E08C9180648C93808191
:1001400080688083808180648083089590917C00A2
:10015000907E90937C0020917C00982F9770922B3A
:1001600090937C00887080937B0080917A008064FB
:1001700080937A0080917A0086FDFCCF8091780090
:100180009091790008952F923F924F925F926F92D3
:100190007F928F929F92AF92BF92CF92DF92EF9217
:1001A000FF920F931F93CF93DF9300D000D000D026
:1001B0000F92CDB7DEB78F83988749875A8766231A
:1001C00009F4DCC06150462E512CD12CC12C88EE94
:1001D000682E83E0782E90E9892E99249394E984FF
:1001E000FA8410E000E006C00F5F1F4F08301105D1
:1001F00009F44BC0D7018D917D018130A9F7809121
:100200007C00807E80937C0080917C00802B80939A
:100210007C0010927B0080917A00806480937A0049
:1002200080917A0086FDFCCFA0907800B090790094
:100230004AE0BE016F5F7F4FC6010E9444040E94E6
:100240000D028FE592E00E940D024AE0BE016F5F51
:100250007F4FC8010E9444040E940D028FE592E086
:100260000E940D024AE0BE016F5F7F4FC5010E94F0
:1002700044040E940D028CE592E00E940D020F5F83
:100280001F4F0830110509F0B5CFC3016F81788584
:100290000E948702CB01B0E0A0E08B839C83AD83FA
:1002A000BE83CD010E94CF021B015C0120E030E043
:1002B0004AE755E46B833C828D83BE826B817C81EF
:1002C0008D819E810E945E037B018C0120E030E0E5
:1002D00040E85FE36B83FC828D831E836B817C81AE
:1002E0008D819E810E949B0287FD20C020E03FEF10
:1002F0004FE757E46B817C818D819E810E94590379
:100300001816BCF0EB82FC820D831E836B817C810E
:100310008D819E810E94A002CB010197F1F7C60159
:100320000196C414D50451F16C0159CF81E090E0DD
:10033000F4CF20E030E040E251E42B823C82AD82F9
:10034000BE826B817C818D819E810E945E036B8366
:100350007C838D839E836B817C818D819E810E94B5
:10036000A002CB010097D9F2F4013197F1F7019780
:10037000D9F7C6010196C414D504B1F62A960FB672
:10038000F894DEBF0FBECDBFDF91CF911F910F91CB
:10039000FF90EF90DF90CF90BF90AF909F908F90A5
:1003A0007F906F905F904F903F902F9008951092A4
:1003B000C50082E38093C40086E08093C20088E990
:1003C0008093C10008959091C00095FFFCCF809369
:1003D000C60008958091C00087FFFCCF8091C600C1
:1003E00008959C019091C00097FFFCCF9091C600AA
:1003F000F9019193992369F09A3021F09D3011F021
:100400009F01F0CF10822E5F3F4F922F981B892FB4
:1004100008959E2F981B892F0895FC0190819923A0
:1004200051F031968091C00085FFFCCF9093C600BB
:1004300091919111F7CF0895CDB7DEB7C850D14053
:100440000FB6F894DEBF0FBECDBF0E94D7018091DA
:100450007A00876080937A0080917C00806480932A
:100460007C0080917A00806880937A0080917A0085
:10047000806480937A0011E088E0E0E0F2E0DE0141
:10048000AF5FBE4F01900D928A95E1F788E092E050
:100490000E940D02CE0101960E94F1016FE572E00B
:1004A000CE0101960E9411040E94F3037C016FE5C6
:1004B00072E090E080E00E9411040E94F303D82EC5
:1004C0006FE572E090E080E00E9411040E94F30367
:1004D000082F6EE572E00BC00E94F303E1E0F1E04B
:1004E000EC0FFD1FE80FF91F10836FE572E090E03D
:1004F00080E00E941104009779F70111BDCFAE0191
:100500004F5F5E4F6D2DC7010E94C300B5CFAA1B80
:10051000BB1B51E107C0AA1FBB1FA617B70710F0EE
:10052000A61BB70B881F991F5A95A9F78095909520
:10053000BC01CD0108950E940C0308F481E00895E8
:100540000E94380388F09F5798F0B92F9927B75128
:10055000B0F0E1F0660F771F881F991F1AF0BA9567
:10056000C9F714C0B13091F00E945203B1E0089570
:100570000C945203672F782F8827B85F39F0B93F62
:10058000CCF3869577956795B395D9F73EF490951A
:100590008095709561957F4F8F4F9F4F0895E89498
:1005A00009C097FB3EF490958095709561957F4FBB
:1005B0008F4F9F4F9923A9F0F92F96E9BB27939569
:1005C000F695879577956795B795F111F8CFFAF479
:1005D000BB0F11F460FF1BC06F5F7F4F8F4F9F4FAA
:1005E00016C0882311F096E911C0772321F09EE808
:1005F000872F762F05C0662371F096E8862F70E06E
:1006000060E02AF09A95660F771F881FDAF7880F47
:100610009695879597F90895990F0008550FAA0B9D
:10062000E0E8FEEF16161706E807F907C0F0121605
:100630001306E407F50798F0621B730B840B950B08
:1006400039F40A2661F0232B242B252B21F408955D
:100650000A2609F4A140A6958FEF811D811D0895FA
:1006600057FD9058440F551F59F05F3F71F0479563
:10067000880F97FB991F61F09F3F79F08795089548
:10068000121613061406551FF2CF4695F1DF08C067
:10069000161617061806991FF1CF86957105610584
:1006A00008940895E894BB2766277727CB0197F92C
:1006B00008950E940C0308F48FEF08950E947103BF
:1006C0000C94E2030E94D40338F00E94DB0320F074
:1006D000952311F00C94CB030C94D10311240C94AA
:1006E00053030E94300370F3959FC1F3950F50E0C0
:1006F000551F629FF001729FBB27F00DB11D639FD4
:10070000AA27F00DB11DAA1F649F6627B00DA11D79
:10071000661F829F2227B00DA11D621F739FB00D1F
:10072000A11D621F839FA00D611D221F749F33278F
:10073000A00D611D231F849F600D211D822F762F28
:100740006A2F11249F5750409AF0F1F088234AF005
:10075000EE0FFF1FBB1F661F771F881F9150504071
:10076000A9F79E3F510580F00C94CB030C945303E2
:100770005F3FE4F3983ED4F3869577956795B795F8
:10078000F795E7959F5FC1F7FE2B880F911D969512
:10079000879597F9089597F99F6780E870E060E082
:1007A00008959FEF80EC089500240A94161617060A
:1007B00018060906089500240A9412161306140652
:1007C00005060895092E0394000C11F4882352F0B5
:1007D000BB0F40F4BF2B11F460FF04C06F5F7F4F6D
:1007E0008F4F9F4F0895FC0188279927E894219106
:1007F0002032E9F3293010F02E30C8F32B3241F0CB
:100800002D3239F4689404C00E943C04820F911D7B
:10081000219120532A30C0F31EF4909581959F4F6B
:10082000089542E652E00C941504FA01A191B081BA
:10083000009719F41097E1F0CD01DC01CD010D9086
:10084000002011F4C00113C0FB012191222319F0F3
:100850002015D9F7F3CFFB012191201519F41E9231
:10086000119606C02223C1F70D900020A1F7D001F8
:10087000FA01A193B08308957AE0979F902D879F06
:10088000802D910D11240895BB27FB015527AA2720
:10089000880F991FAA1FA41710F0A41B839550510D
:1008A000B9F7A05DAA3308F0A95DA193009779F785
:1008B000B111B1931192CB010C945E04DC01FC01E7
:1008C000672F71917723E1F7329704C07C916D9384
:1008D00070836291AE17BF07C8F30895F894FFCFF5
:1008E0000000000000000000526561647920666F1E
:1008F00072206E6578742073616D706C696E672EFE
:100900002057616974696E6720666F72207061722A
:10091000616D73205B667265712073616D706C65CB
:1009200073206D6F64652C206368616E6E656C73F7
:100930003A205B312032202E2E2E5D5D0A002C20C5
:020940000000B5
:00000001FF
