:100000000C9472000C9493000C9493000C94930045
:100010000C9493000C9493000C9493000C94930014
:100020000C9493000C9493000C9493000C94930004
:100030000C9493000C9493000C9493000C949300F4
:100040000C9493000C9493000C9493000C949300E4
:100050000C9493000C9493000C9493000C949300D4
:100060000C9493000C9493000C9493000C949300C4
:100070000C9493000C9493000C9493000C949300B4
:100080000C9493000C9493000C9493000C949300A4
:100090000C9493000C9493000C9493000C94930094
:1000A0000C9493000C9493000C9493000C94930084
:1000B0000C9493000C9493000C9493000C94930074
:1000C0000C9493000C9493000C9493000C94930064
:1000D0000C9493000C9493000C9493000C94930054
:1000E0000C94930011241FBECFEFD1E2DEBFCDBF31
:1000F00000E00CBF12E0A0E0B2E0E8E7FDE000E0C5
:100100000BBF02C007900D92AE30B107D9F722E0C5
:10011000AEE0B2E001C01D92A031B207E1F70E944B
:1001200088040C94BA060C940000EAE7F0E08081A1
:1001300087608083ACE7B0E08C9180648C93808191
:1001400080688083808180648083089590917C00A2
:10015000907E90937C0020917C00982F9770922B3A
:1001600090937C00887080937B0080917A008064FB
:1001700080937A0080917A0086FDFCCF8091780090
:10018000909179000895AF92BF92CF92DF92EF9253
:10019000FF920F931F93CF93DF93CDB7DEB7DA951E
:1001A0000FB6F894DEBF0FBECDBF5C016B017A01C4
:1001B0008901CE0101960E945D0469E072E0CE01E2
:1001C00001960E945D060E943F06F501918380839F
:1001D00069E072E090E080E00E945D060E943F06C8
:1001E000F601808369E072E090E080E00E945D06A5
:1001F0000E943F06F701808368E072E090E080E0B3
:100200000E945D069C01892B91F0FF24F394C901A3
:100210000E943F06F801E80FF91FF08269E072E0E2
:1002200090E080E00E945D069C01892B81F7D395C8
:100230000FB6F894DEBF0FBECDBFDF91CF911F91F7
:100240000F91FF90EF90DF90CF90BF90AF90089507
:10025000FF920F931F93CF93DF930F920F92CDB71F
:10026000DEB7F62E8A014AE0BE016F5F7F4F90E055
:100270000E9490060E94790489E092E00E9479042D
:100280004AE0BE016F5F7F4F8F2D90E00E94900685
:100290000E94790489E092E00E9479044AE0BE015C
:1002A0006F5F7F4FC8010E9490060E9479048BE027
:1002B00092E00E9479040F900F90DF91CF911F91EF
:1002C0000F91FF9008952F923F924F925F926F92FD
:1002D0007F928F929F92AF92BF92CF92DF92EF92D6
:1002E000FF920F931F93CF93DF9300D000D000D0E5
:1002F0000F92CDB7DEB78F83988749875A876623D9
:1003000009F4DCC06150462E512CD12CC12C88EE52
:10031000682E83E0782E90E9892E99249394E984BD
:10032000FA8410E000E006C00F5F1F4F083011058F
:1003300009F44BC0D7018D917D018130A9F78091DF
:100340007C00807E80937C0080917C00802B809359
:100350007C0010927B0080917A00806480937A0008
:1003600080917A0086FDFCCFA0907800B090790053
:100370004AE0BE016F5F7F4FC6010E9490060E9457
:10038000790489E092E00E9479044AE0BE016F5F3F
:100390007F4FC8010E9490060E94790489E092E094
:1003A0000E9479044AE0BE016F5F7F4FC5010E9441
:1003B00090060E9479048BE092E00E9479040F5F1E
:1003C0001F4F0830110509F0B5CFC3016F81788543
:1003D0000E94D304CB01B0E0A0E08B839C83AD836B
:1003E000BE83CD010E941B051B015C0120E030E0B3
:1003F0004AE755E46B833C828D83BE826B817C81AE
:100400008D819E810E94AA057B018C0120E030E055
:1004100040E85FE36B83FC828D831E836B817C816C
:100420008D819E810E94E70487FD20C020E03FEF80
:100430004FE757E46B817C818D819E810E94A505E9
:100440001816BCF0EB82FC820D831E836B817C81CD
:100450008D819E810E94EC04CB010197F1F7C601CA
:100460000196C414D50451F16C0159CF81E090E09C
:10047000F4CF20E030E040E251E42B823C82AD82B8
:10048000BE826B817C818D819E810E94AA056B83D7
:100490007C838D839E836B817C818D819E810E9474
:1004A000EC04CB010097D9F2F4013197F1F70197F1
:1004B000D9F7C6010196C414D504B1F62A960FB631
:1004C000F894DEBF0FBECDBFDF91CF911F910F918A
:1004D000FF90EF90DF90CF90BF90AF909F908F9064
:1004E0007F906F905F904F903F902F9008952F9244
:1004F0003F924F925F926F927F928F929F92AF92B4
:10050000BF92CF92DF92EF92FF920F931F93CF9300
:10051000DF93CDB7DEB7C950D4400FB6F894DEBF35
:100520000FBECDBFC95FDB4F8883C750D440C85FC3
:10053000DB4F9883C850D440762EC75FDB4F48838B
:10054000C950D440252E662309F4EFC0C12CD12C0C
:1005500078EE872E73E0972EE0E9AE2EBB24B3949D
:10056000C75FDB4FE881C950D440F22D40E003C0A3
:100570004F5F4830F1F181918130D1F72FEFD216E2
:1005800009F43AC180917C00807E80937C00809148
:100590007C00842B80937C0010927B0080917A00F9
:1005A000806480937A0080917A0086FDFCCF209150
:1005B0007800309179008D2D90E0A1E0B3E0AC0F90
:1005C000BD1FA80FB91FCC92A1E0B2E0AC0FBD1FB8
:1005D000A80FB91F4C93880F991FA1E0B0E0AC0F92
:1005E000BD1FA80FB91F2D933C93D3944F5F483084
:1005F00011F6C401C95FDB4F6881C750D440C85FA2
:10060000DB4F7881C850D4400E94D304CB01B0E0C6
:10061000A0E0CD5FDB4F88839983AA83BB83C3505F
:10062000D440CD010E941B05362E472E582E692E30
:1006300020E030E04AE755E4CD5FDB4F6883C350EC
:10064000D440CC5FDB4F7883C450D440CB5FDB4FCA
:100650008883C550D440CA5FDB4F9883C650D440CE
:10066000CD5FDB4F688179818A819B81C350D44003
:100670000E94AA057B018C0120E030E040E85FE3A6
:10068000CD5FDB4F6883C350D440CC5FDB4FF88233
:10069000C450D440CB5FDB4F8883C550D440CA5F81
:1006A000DB4F1883C650D440CD5FDB4F6881798122
:1006B0008A819B81C350D4400E94E70487FD4FC0CC
:1006C00020E03FEF4FE757E4CD5FDB4F6881798152
:1006D0008A819B81C350D4400E94A50518160CF452
:1006E00041C0CD5FDB4FE882C350D440CC5FDB4FCD
:1006F000F882C450D440CB5FDB4F0883C550D44050
:10070000CA5FDB4F1883C650D440CD5FDB4F688192
:1007100079818A819B81C350D4400E94EC04CB0133
:100720000197F1F7C3947C101BCFC75FDB4F0FB667
:10073000F894DEBF0FBECDBFDF91CF911F910F9117
:10074000FF90EF90DF90CF90BF90AF909F908F90F1
:100750007F906F905F904F903F902F90089581E031
:1007600090E0DECF20E030E040E251E4CD5FDB4FAF
:100770003882C350D440CC5FDB4F4882C450D44051
:10078000CB5FDB4F5882C550D440CA5FDB4F6882D5
:10079000C650D440CD5FDB4F688179818A819B81CF
:1007A000C350D4400E94AA05CD5FDB4F6883C3507D
:1007B000D440CC5FDB4F7883C450D440CB5FDB4F59
:1007C0008883C550D440CA5FDB4F9883C650D4405D
:1007D000CD5FDB4F688179818A819B81C350D44092
:1007E0000E94EC04CB01009709F49CCFF5013197EE
:1007F000F1F70197D9F796CF10E0812F90E0FC0137
:10080000EE0FFF1FA1E0B0E0AC0FBD1FEA0FFB1F12
:10081000E080F180E1E0F2E0EC0FFD1FE80FF91F4E
:100820000081E1E0F3E0EC0FFD1F8E0F9F1FDC0164
:100830008C914AE0BE016F5F7B4F90E00E94900672
:100840000E94790489E092E00E9479044AE0BE01A6
:100850006F5F7B4F802F90E00E9490060E9479048A
:1008600089E092E00E9479044AE0BE016F5F7B4F0D
:10087000C7010E9490060E9479048BE092E00E94DA
:1008800079041F5FBACF1092C50082E38093C40041
:1008900086E08093C20088E98093C100089590911A
:1008A000C00095FFFCCF8093C60008958091C000E2
:1008B00087FFFCCF8091C60008959C019091C000F5
:1008C00097FFFCCF9091C600F9019193992369F0AD
:1008D0009A3021F09D3011F09F01F0CF10822E5FF1
:1008E0003F4F922F981B892F08959E2F981B892F79
:1008F0000895FC019081992351F031968091C000B8
:1009000085FFFCCF9093C60091919111F7CF089588
:10091000CDB7DEB72C970FB6F894DEBF0FBECDBFB4
:100920000E94430480917A00876080937A008091CE
:100930007C00806480937C0080917A008068809342
:100940007A0080917A00806480937A0088E0E0E009
:10095000F2E0DE01119601900D928A95E1F79E0179
:100960002F5F3F4FAE01455F5F4FBE01645F7F4F1A
:10097000CE0109960E94C3008B85811109C0AE018A
:100980004F5F5F4F6C8589859A850E946301DECF3A
:100990008130E1F6AE014F5F5F4F6C8589859A85A6
:1009A0000E947702D3CFAA1BBB1B51E107C0AA1F2D
:1009B000BB1FA617B70710F0A61BB70B881F991F00
:1009C0005A95A9F780959095BC01CD0108950E9494
:1009D000580508F481E008950E94840588F09F5727
:1009E00098F0B92F9927B751B0F0E1F0660F771F53
:1009F000881F991F1AF0BA95C9F714C0B13091F049
:100A00000E949E05B1E008950C949E05672F782FF3
:100A10008827B85F39F0B93FCCF38695779567950D
:100A2000B395D9F73EF490958095709561957F4F79
:100A30008F4F9F4F0895E89409C097FB3EF490951F
:100A40008095709561957F4F8F4F9F4F9923A9F0A7
:100A5000F92F96E9BB279395F69587957795679536
:100A6000B795F111F8CFFAF4BB0F11F460FF1BC07A
:100A70006F5F7F4F8F4F9F4F16C0882311F096E90D
:100A800011C0772321F09EE8872F762F05C06623BB
:100A900071F096E8862F70E060E02AF09A95660F74
:100AA000771F881FDAF7880F9695879597F908952D
:100AB000990F0008550FAA0BE0E8FEEF161617066F
:100AC000E807F907C0F012161306E407F50798F0D7
:100AD000621B730B840B950B39F40A2661F0232BF0
:100AE000242B252B21F408950A2609F4A140A6956C
:100AF0008FEF811D811D089557FD9058440F551F9C
:100B000059F05F3F71F04795880F97FB991F61F08F
:100B10009F3F79F087950895121613061406551F06
:100B2000F2CF4695F1DF08C0161617061806991F72
:100B3000F1CF86957105610508940895E894BB2767
:100B400066277727CB0197F908950E94580508F486
:100B50008FEF08950E94BD050C942E060E9420067A
:100B600038F00E94270620F0952311F00C94170608
:100B70000C941D0611240C949F050E947C0570F3B3
:100B8000959FC1F3950F50E0551F629FF001729F32
:100B9000BB27F00DB11D639FAA27F00DB11DAA1F41
:100BA000649F6627B00DA11D661F829F2227B00D8E
:100BB000A11D621F739FB00DA11D621F839FA00D19
:100BC000611D221F749F3327A00D611D231F849F69
:100BD000600D211D822F762F6A2F11249F575040C0
:100BE0009AF0F1F088234AF0EE0FFF1FBB1F661F3B
:100BF000771F881F91505040A9F79E3F510580F004
:100C00000C9417060C949F055F3FE4F3983ED4F3D1
:100C1000869577956795B795F795E7959F5FC1F7A7
:100C2000FE2B880F911D9695879597F9089597F952
:100C30009F6780E870E060E008959FEF80EC089582
:100C400000240A94161617061806090608950024AB
:100C50000A9412161306140605060895092E039425
:100C6000000C11F4882352F0BB0F40F4BF2B11F499
:100C700060FF04C06F5F7F4F8F4F9F4F0895FC014F
:100C800088279927E89421912032E9F3293010F040
:100C90002E30C8F32B3241F02D3239F4689404C061
:100CA0000E948806820F911D219120532A30C0F3A3
:100CB0001EF4909581959F4F08954EE052E00C945C
:100CC0006106FA01A191B081009719F41097E1F043
:100CD000CD01DC01CD010D90002011F4C00113C045
:100CE000FB012191222319F02015D9F7F3CFFB0145
:100CF0002191201519F41E92119606C02223C1F7E6
:100D00000D900020A1F7D001FA01A193B0830895BE
:100D10007AE0979F902D879F802D910D1124089543
:100D2000BB27FB015527AA27880F991FAA1FA417C5
:100D300010F0A41B83955051B9F7A05DAA3308F0B9
:100D4000A95DA193009779F7B111B1931192CB01ED
:100D50000C94AA06DC01FC01672F71917723E1F75F
:100D6000329704C07C916D9370836291AE17BF0778
:080D7000C8F30895F894FFCFC9
:0E0D780000000000000000002C20000A000017
:00000001FF
