:100000000C9472000C9486000C9486000C9486006C
:100010000C9486000C9486000C9486000C94860048
:100020000C9486000C9486000C9486000C94860038
:100030000C9486000C9486000C9486000C94860028
:100040000C9486000C9486000C9486000C94860018
:100050000C9486000C9486000C9486000C94860008
:100060000C9486000C94C4000C94EA000C94860056
:100070000C9486000C9486000C9486000C948600E8
:100080000C9486000C9486000C9486000C948600D8
:100090000C9486000C9486000C9486000C948600C8
:1000A0000C9486000C9486000C9486000C948600B8
:1000B0000C9486000C9486000C9486000C948600A8
:1000C0000C9486000C9486000C9486000C94860098
:1000D0000C9486000C9486000C9486000C94860088
:1000E0000C94860011241FBECFEFD1E2DEBFCDBF3E
:1000F00000E00CBF24E0A0E0B2E001C01D92A430FB
:10010000B207E1F70E9419010C9468010C940000F9
:100110001092C50082E38093C40086E08093C20001
:1001200088E98093C100789410920204109201042F
:100130000895BC0181E093E00E94610110920304E4
:1001400081E0809302048091C10080628093C100AD
:10015000809102048130E1F30895E0E0F2E020E0D4
:1001600031E0DF01A9011D9241505040E1F71092AA
:10017000000321E020930104209101042130E1F3E8
:1001800061E072E00C9461011F921FB61F9211246E
:100190008F938BB78F93EF93FF938091C6008A3034
:1001A000B1F0E0910003F0E08091C600E050FE4F16
:1001B0008083809100038F5F80930003FF91EF9114
:1001C0008F918BBF8F911F901FBE1F90189510921B
:1001D0000104F4CF1F921FB61F9211248F938BB787
:1001E0008F93EF93FF93E0910304F0E0EF5FFC4FF8
:1001F00080818093C600E0910304F0E0EF5FFC4F44
:10020000808181110BC010920204FF91EF918F91B8
:100210008BBF8F911F901FBE1F9018958091030474
:100220008F5F809303048091C10080628093C1003E
:10023000ECCFCDB7DEB7DA950FB6F894DEBF0FBEC0
:10024000CDBF1092C50082E38093C40086E0809306
:10025000C20088E98093C100789410920204109241
:10026000010480E0C82E82E0D82EE12CFF24F39414
:1002700011E0F601C70111920197E9F7109200030E
:1002800010930104809101048130E1F361E072E098
:10029000CE0101960E946101BE016F5F7F4F81E038
:1002A00093E00E9461011092030410930204809174
:1002B000C10080628093C100809102048130E1F32B
:1002C000D8CFFB01DC0101900D920020E1F70895E9
:0402D000F894FFCFD0
:00000001FF
