:100000000C9472000C9486000C9486000C9486006C
:100010000C9486000C9486000C9486000C94860048
:100020000C9486000C9486000C9486000C94860038
:100030000C9486000C9486000C9486000C94860028
:100040000C9486000C9486000C9486000C94860018
:100050000C9486000C9486000C9486000C94860008
:100060000C9486000C94CD000C9412010C94860024
:100070000C9486000C9486000C9486000C948600E8
:100080000C9486000C9486000C9486000C948600D8
:100090000C9486000C9486000C9486000C948600C8
:1000A0000C9486000C9486000C9486000C948600B8
:1000B0000C9486000C9486000C9486000C948600A8
:1000C0000C9486000C9486000C9486000C94860098
:1000D0000C9486000C9486000C9486000C94860088
:1000E0000C94860011241FBECFEFD1E2DEBFCDBF3E
:1000F00000E00CBF22E0A0E0B2E001C01D92A430FD
:10010000B207E1F70E942F010C94A0010C940000AB
:10011000F8941092C50082E38093C40086E0809337
:10012000C20088E98093C100789410920002109276
:100130000102089581E080930002809100028130E5
:10014000E1F38091C10080688093C1008091030237
:1001500008959C0141E0409300029091000291308B
:10016000E1F39091C10090689093C10090910302D7
:10017000F9019193992369F09A3021F09D3011F0A3
:100180009F01E9CF10822E5F3F4F922F981B892F3E
:1001900008959E2F981B892F08951F921FB61F92B6
:1001A00011248F938BB78F93EF93FF938091C600A9
:1001B0008093030210920002E1ECF0E080818F77DF
:1001C0008083FF91EF918F918BBF8F911F901FBE06
:1001D0001F9018958093020281E080930102789429
:1001E0008091C10080628093C100809101028130C2
:1001F000E1F30895FC018081882399F0319691E024
:10020000809302029093010278948091C1008062F1
:100210008093C100809101028130E1F381918111CD
:10022000EFCF08951F921FB61F9211248F938BB7A3
:100230008F93EF93FF93809102028093C6001092F8
:100240000102E1ECF0E080818F7D8083FF91EF91EE
:100250008F918BBF8F911F901FBE1F901895CDB7A8
:10026000DEB7DA950FB6F894DEBF0FBECDBFF894B7
:100270001092C50082E38093C40086E08093C200A0
:1002800088E98093C10078941092000210920102D4
:1002900091E0FE013196909300028091000281303E
:1002A000E1F38091C10080688093C10080910302D6
:1002B0008193882329F08A3011F08D3061F7108204
:1002C0008981882399F1FE013296809302029093EE
:1002D000010278948091C10080628093C100809176
:1002E00001028130E1F381918111EFCF89812FEFFC
:1002F00033ED40E3215030404040E1F700C00000C2
:10030000882339F2FE013296809302029093010213
:1003100078948091C10080628093C1008091010235
:100320008130E1F381918111EFCFB3CF8FEF23EDD6
:1003300030E3815020403040E1F700C00000A9CFF9
:04034000F894FFCF5F
:00000001FF
