:100000000C9474000C9495000C9495000C9495003D
:100010000C9495000C9495000C9495000C9495000C
:100020000C9495000C9495000C9495000C949500FC
:100030000C9495000C9495000C9495000C949500EC
:100040000C9495000C9495000C9495000C949500DC
:100050000C9495000C9495000C9495000C949500CC
:100060000C9495000C9495000C9495000C949500BC
:100070000C9495000C9495000C9495000C949500AC
:100080000C9495000C9495000C9495000C9495009C
:100090000C9495000C9495000C9495000C9495008C
:1000A0000C9495000C9495000C9495000C9495007C
:1000B0000C9495000C9495000C9495000C9495006C
:1000C0000C9495000C9495000C9495000C9495005C
:1000D0000C9495000C9495000C9495000C9495004C
:1000E0000C9495000C94970011241FBECFEFD1E221
:1000F000DEBFCDBF00E00CBF12E0A0E0B2E0E2EA5C
:10010000F7E000E00BBF02C007900D92A831B107E5
:10011000D9F722E0A8E1B2E001C01D92AE31B207EA
:10012000E1F70E94EA000C94CF030C9400008A309F
:1001300049F09091C00095FFFCCF8093C60090E0FD
:1001400080E008959091C00095FFFCCF9DE09093D2
:10015000C600EFCF9093C5008093C40086E08093E3
:10016000C20088E98093C10008959091C00095FF76
:10017000FCCF8093C60008958091C00087FFFCCF1C
:100180008091C60008958091C000881F8827881F2D
:100190000895FC019081992351F031968091C0001F
:1001A00085FFFCCF9093C60091919111F7CF0895F0
:1001B00080E092E090931B0280931A021092C50097
:1001C00082E38093C40086E08093C20088E9809334
:1001D000C10008950E94D8008DE08093800089E0DE
:1001E000809381001092890010928B0010928D00F4
:1001F00081E080938C00279AC0E00EE012E0C0936B
:100200008C0080918C001F928F931F930F930E94FC
:1002100018012FEF80E792E0215080409040E1F7F5
:1002200000C00000C85F0F900F900F900F90E7CFB5
:10023000CF93DF93CDB7DEB7FE0136966191719112
:10024000AF0180911A0290911B020E942A01DF9156
:10025000CF9108952F923F924F925F926F927F922B
:100260008F929F92AF92BF92CF92DF92EF92FF92C6
:100270000F931F93CF93DF93CDB7DEB72F970FB6B2
:10028000F894DEBF0FBECDBF7C013B018A01DC01CB
:1002900017961C921E92169713968C9181FFD8C1C7
:1002A0009AE0292EFE0131964F01D70113969C91B9
:1002B000F30193FD859193FF81913F01882309F418
:1002C00048C1853239F493FD859193FF81913F01B7
:1002D000853229F4B70190E00E944103E6CFB12CAA
:1002E000412C512CBFE1B51538F08B3209F188F45F
:1002F000803201F1833221F157FC3AC020ED280F02
:100300002A3040F556FE1FC0B29C200D1124B22E9B
:1003100006C08D3291F0803379F7689450F8F3017C
:1003200093FD859193FF81913F018111DBCF20C027
:10033000689451F8689452F8F2CF689453F8EFCF6C
:10034000689454F8ECCF429C200D1124422E6894FE
:1003500055F8E5CF8E3229F456FCFBC0689456F868
:10036000DECF8C3619F4689457F8D9CF8836B9F2B5
:10037000982F9F7D95549330C0F08336A1F1833739
:10038000C1F1833509F05BC0D801CD90DD908D01BE
:100390006B2D70E056FC02C06FEF7FEFC6010E942C
:1003A0002B035C01689457F80AC00C5F1F4FEFE302
:1003B000E983AA24A394B12C6401E89457F853FC70
:1003C00004C04A141B0409F018F5342CA114B1041C
:1003D00031F5332009F469CFB70180E290E00E9443
:1003E00041033A94F6CFD8018C9189830E5F1F4F59
:1003F000E0CFF801C190D1908F016B2D70E056FCD9
:1004000002C06FEF7FEFC6010E9436035C01D5CFBB
:10041000B70180E290E00E9441034A94D2CFF601F6
:1004200057FC859157FE81916F01B70190E00E94C2
:10043000410331103A94B1E0AB1AB108C7CF84360A
:1004400019F0893609F074C0F80157FE6AC061914D
:100450007191819191918F01E52DEF76DE2E97FFBD
:1004600009C090958095709561957F4F8F4F9F4FF4
:100470006894D7F82AE030E0A4010E947103C82EE6
:10048000C818AC2C5D2CD6FE0CC0E89450F8CB14E8
:1004900040F4D4FE05C0D2FC03C05D2D5E7E552E17
:1004A000AB2C54FEADC0FE01EC0DF11D80818033FC
:1004B00009F09FC0652D697E562E752D7870372EF8
:1004C00053FCADC050FEA7C0BC2CA41418F44C0CB7
:1004D000B42CBA1854FEA9C0B70180E390E00E9482
:1004E000410352FE09C088E790E051FE02C088E552
:1004F00090E0B7010E944103CB1408F4A2C0CA9453
:10050000D12C8FEFC81AD80AC80CD91CD6018E91ED
:100510006D01B70190E00E9441038C149D04B1F776
:1005200058CF61917191072E000C880B990B93CFD6
:10053000D52CE894D4F82AE030E08537E1F1F52DA8
:10054000F97FDF2E803751F100F5883551F18F3674
:1005500081F1F701868197812F960FB6F894DEBF5F
:100560000FBECDBFDF91CF911F910F91FF90EF9004
:10057000DF90CF90BF90AF909F908F907F906F90C3
:100580005F904F903F902F900895883711F7D4FED9
:1005900002C06894D2F820E130E00DC06894D4F82D
:1005A000F6CF54FE03C02F2F2660D22E20E132E07A
:1005B00002C028E030E0F801D7FE15C0419151910A
:1005C000619171914C875D876E877F878F01A40150
:1005D0006C857D858E859F850E947103C82EC81805
:1005E000E894D7F84ECF81919191AC0170E060E032
:1005F000E9CF52FC02C0A39460CFA394A3945DCF33
:10060000852D867809F459CFF6CFB70180E290E0C6
:100610000E944103A394A414C0F3312C5BCF342C6B
:100620003A18A41408F456CFF8CF852D867809F42B
:1006300063CF8BE251FE80E257FC8DE2B70190E080
:1006400059CFB70180E390E00E944103BA9454CFA0
:100650008FEF9FEF81CFFC0105906150704001103A
:10066000D8F7809590958E0F9F1F0895FC016150DB
:10067000704001900110D8F7809590958E0F9F1FC4
:1006800008950F931F93CF93DF93182F092FEB013A
:100690008B8181FD09C01FEF0FEF812F902FDF911C
:1006A000CF911F910F91089582FF14C02E813F8139
:1006B0008C819D81281739073CF4E881F981CF01AD
:1006C00001969983888310838E819F8101969F83F1
:1006D0008E83E3CFE885F985812F1995892BA1F3C6
:1006E000DACFFA01AA27283051F1203181F1E894BC
:1006F0006F936E7F6E5F7F4F8F4F9F4FAF4FB1E015
:100700003ED0B4E03CD0670F781F891F9A1FA11D0F
:10071000680F791F8A1F911DA11D6A0F711D811D10
:10072000911DA11D20D009F468943F912AE0269FD5
:1007300011243019305D3193DEF6CF010895462F34
:100740004770405D4193B3E00FD0C9F7F6CF462F15
:100750004F70405D4A3318F0495D31FD405241937E
:1007600002D0A9F7EACFB4E0A6959795879577953B
:100770006795BA95C9F700976105710508959B01C2
:10078000AC010A2E06945795479537952795BA954B
:10079000C9F7620F731F841F951FA01D0895F89459
:0207A000FFCF89
:1007A2000000000200000000970000000000443139
:0807B200333A2025750A00000E
:00000001FF
